:201E000012010002FFFFFF4004B403100100010200010A060002FFFFFF400100090219002C
:151E200001010080320904000001FFFFFF00070582020002005C
:191E36000902190001010080320904000001FFFFFF0007058202400000E0
:201E500004030904160353006500720067002000530069007A006F0076001C03660078007C
:181E700032006C006100660077002D0063006100700074007200000037
:040000000201B9320E
:01000B0032C2
:0100130032BA
:01001B0032B2
:0100230032AA
:01002B0032A2
:01003300329A
:01003B003292
:01004300328A
:01004B003282
:01005300327A
:01005B003272
:01006300326A
:03006B000203B1DC
:030073000203FD88
:03007B000203D8A5
:03008300020FA9C0
:03008B000204224A
:03009300020471F3
:03009B00020864F4
:0300A300020FD574
:0300AB00020FD66B
:0300B300020FD762
:0300BB00020FDA57
:0300C300020FAB7E
:0300CB00020FC75A
:0300D300020FC851
:0300DB00020FCA47
:0300E3000204C054
:0300EB00021053AD
:0300F3000208659B
:0300FB0002086692
:03010300020BC02C
:03010B00020BC123
:03011300020BC21A
:03011B0002103699
:03012300020FD3F5
:03012B00020FD8E8
:03013300020FDBDD
:03013B00020FDDD3
:03014300020FD4D4
:03014B00020FD9C7
:03015300020FDCBC
:03015B00020FDEB2
:0301630002103552
:03016B00020FCBB5
:03017300020FCDAB
:03017B00020FCFA1
:03018300020FD197
:03018B00020FCC94
:03019300020FCE8A
:03019B00020FD080
:0301A300020FD276
:0301AB00020FC977
:0301B300020FAA8E
:030227000201B61B
:0301B6000205E55A
:20022A0090E61274E0F00000000090E611E0FF747F5FF00000000090E610E0FF747F5FF099
:20024A000000000090E613E0FF747F5FF00000000090E614E0FF747F5FF00000000090E6C9
:20026A0015E0FF747F5FF00000000090E6047480F00000000090E6047402F0000000009070
:20028A00E604E4F00000000090E6187408F00000000090E6207402F00000000090E621E425
:2002AA00F00000000090E6D27402F0000000002290E740E4F090E74175F0007465120FAC26
:2002CA0090E68AE4F00000000090E68B7402F0000000002290E60AE0FF90E740F090E68AB1
:2002EA00E4F00000000090E68B7401F00000000022AF82BFB002801EBFB102800ABFB202E9
:20030A00801BBFB335801D8F0890E68BE4F000000000758201221202BA758201221202DE94
:20032A007582012290E6BAE0F58212081790E68BE4F0000000007582012275820022E58272
:20034A00FF600475820022AD17AE18AF198D828E838FF0E4120FAC75820122E582FF700481
:20036A00E51760047582002290E6837412F0E0FF74204FF090E6047480F00000000090E605
:20038A00047402F00000000090E604E4F0000000007582012275820122AF82BF01047F01F2
:2003AA0080027F008F8222C0E0C082C083C007C0D075D000D200AF9174EF5FF59190E65D11
:2003CA007401F0D0D0D007D083D082D0E032C0E0C082C083C007C0D075D000AF9174EF5FED
:2003EA00F59190E65D7404F0D0D0D007D083D082D0E032C0E0C082C083C007C0D075D00073
:20040A00AF9174EF5FF59190E65D7402F0D0D0D007D083D082D0E032C021C0E0C0F0C082A0
:20042A00C083C007C006C005C004C003C002C001C000C0D075D000758200120E95AF91741E
:20044A00EF5FF59190E65D7410F0D0D0D000D001D002D003D004D005D006D007D083D08296
:20046A00D0F0D0E0D02132C021C0E0C0F0C082C083C007C006C005C004C003C002C001C00D
:20048A0000C0D075D000758201120E95AF9174EF5FF59190E65D7420F0D0D0D000D001D0E0
:2004AA0002D003D004D005D006D007D083D082D0F0D0E0D02132C021C0E0C0F0C082C08319
:2004CA00C007C006C005C004C003C002C001C000C0D075D00090E658E0FFE4F0AE9174EFFE
:2004EA005EF59190E659E0FE30E20C7401B50907C007120807D00790E65974FFF090E65B47
:20050A007401F00000000090E658EFF000000000D0D0D000D001D002D003D004D005D0065A
:20052A00D007D083D082D0F0D0E0D0213290E60B7403F0C20075080090E680E0FF740A4FD9
:20054A00F09005DC120FDF90E680E0FF74F75FF090E600E0FF74E75F4410F0E500D2E8901F
:20056A00E668E0FF74084FF090E65CE0FF74014FF090E65AE0FF74014FF090E658E0FF74A0
:20058A00044FF090E65CE0FF74024FF0E0FF74204FF0E0FF74104FF0D2AF12022A02068A03
:2005AA00300005120BC3C200E508602C74B1B5082490E6A0E0FF20E11F90E68BE0FFBF0324
:2005CA000F75820112081790E74075F00012074A750800800375080002082012053712054E
:0305EA00AA80FBE9
:030212007509006B
:2005ED0075AF03759AE4759B007E007F0090E67BE4F00EBE00010FC3EE9480EF648094807A
:20060D0040EB2290E6F3E4F090E6C3F090E6C1F090E6C2F090E6C074E4F090E6F4E4F0907F
:20062D00E6D3F02290E67174FFF0F5B490E672E0FF74804FF043B6800000000090E6C5E45D
:20064D00F00000000090E6C4E4F0E5B275B2FF00000000858080000000002290E6C6E4F01B
:20066D0090E6C7F090E6C8F090E6C9F090E6CAF090E6CBF090E6CCF090E6CDF02290E60184
:20068D007442F090E6F574FFF01206101205ED12063112066875090022858218858319857F
:2006AD00F01AAD18AE19AF1A8D828E838FF0E517120FAC74082DFAE43EFB8F048A828B83F9
:2006CD008CF0E4120FAC74102DFAE43EFB8F048A828B838CF0E4120FAC74182DFDE43EFE68
:2006ED008D828E838FF0E4020FAC85821785831885F019AD17AE18AF198D828E838FF0747C
:20070D00BD120FAC74082DFAE43EFB8F048A828B838CF07403120FAC74102DFAE43EFB8FBE
:20072D00048A828B838CF0E4120FAC74182DFDE43EFE8D828E838FF07436020FACAD82AEA8
:20074D0083AFF0E5BB30E7FB8D828E838FF0121037FD30E50890E6187409F0800690E61897
:20076D007408F00000000075170090E40075F0001206A675170090E40175F0001206A67544
:20078D00170090E40275F0001206A675170090E40375F0001206A675170090E40475F0000D
:2007AD001206A690E40575F0001206F7750901D32275170090E40075F0001206A67517005E
:2007CD0090E40175F0001206A675170090E40275F0001206A675170090E40375F0001206CF
:2007ED00A675170090E40475F0001206A690E40575F0001206F775090122900001120A8C58
:20080D00758200120BA97509022285828000000000D3227402B5093EE5BB30E73990E60414
:20082D007480F00000000090E618E4F00000000090E6047402F00000000090E6187408F08B
:17084D000000000090E604E4F000000000758200120817750900227E
:010864003261
:010865003260
:01086600325F
:2008670085821A85831B85F01C90E601E0FC74FC5CF0E0FC74024CF090E6F574FFF0AA1770
:20088700AB18AC198A828B838CF012103790E6F3F074012AF8E43BF98C07888289838FF0AA
:2008A700121037F890E6C3F074022AFDE43BFE8C078D828E838FF012103790E6C1F07403D4
:2008C7002AFDE43BFE8C078D828E838FF012103790E6C2F074052AFDE43BFE8C078D828E2D
:2008E700838FF012103790E6C0F074062AFAE43BFB8A828B838CF0121037FA90E6F4F07500
:20090700AF07AD1AAE1B8E078F9A7E008D9B759DE48E9E7F0090E67BE0FE90E67CF00FBF06
:20092700800040F190E67174FFF0F5B490E672E0FF74804FF043B6800000000090E6C4E47B
:20094700F00000000090E6C5E4F090E6C6F090E6C7F090E6C8F090E6C9F090E6CAF090E635
:20096700CBF090E6CCF090E6CDF022AD82AE83AFF0E51775F009A4FC2DF9E43EFA8F0389C8
:20098700828A838BF012103790E6C6F07B0074012CF9E43BFAE92DF9EA3EF88F0289828840
:2009A700838AF012103790E6C7F074022CF9E43BFAE92DF9EA3EF88F02898288838AF01297
:2009C700103790E6C8F074032CF9E43BFAE92DF9EA3EF88F02898288838AF012103790E6C7
:2009E700C9F074042CF9E43BFAE92DF9EA3EF88F02898288838AF012103790E6CAF074052F
:200A07002CF9E43BFAE92DF9EA3EF88F02898288838AF012103790E6CBF074062CF9E43BF9
:200A2700FAE92DF9EA3EF88F02898288838AF012103790E6CCF074072CFCE43BFBEC2DFD07
:200A4700EB3EFE8D828E838FF012103790E6CDF022AC82AD83AEF0FF8E028F038B0190E6FC
:200A6700CEE9F0000000007B0090E6CFEAF0000000007E008D0790E6D0EFF0000000009067
:200A8700E6D1ECF022AE82AF838F0590E6D0EDF00000000090E6D1EEF02285821985831AF8
:200AA70085F01BE5BB30E7FB90E6F1E0FC7B00851982851A83851BF0EC120FACA3EB120FF5
:200AC700ACE51724FFFBE51834FFFC7A008A007900C3E89517E99518506EE5BB30E7FBEA59
:200AE70075F002A42519F8E51A35F0F9AF1BAEBD7D00888289838FF0ED120FACA3EE120FDE
:200B0700AC881C891D8F1E888289838FF0121037FEA3121037FF8A017D00E9B50308EDB5F1
:200B27000404ADBF8002ADBE8D017D00E94206ED4207851C82851D83851EF0EE120FACA3A2
:200B4700EF120FAC0A020AD42285821985831A85F01B7C008C027B00C3EA9517EB9518502E
:200B670040E5BB30E7FBEC75F002A42519F9E51A35F0FAAB1B89828A838BF0121037A312C9
:200B87001037FFF890E6F0E8F089828A838BF0121037F9A31210377A0090E6F1E9F00C80AB
:190BA700B322AF82E5BB30E7FB74044FF5BB22AF82E5BB30E7FB8FBB2295
:010BC0003202
:010BC1003201
:010BC2003200
:0601E800E478FFF6D8FDEB
:1202150075110075120075133675141E75151C75161E16
:200BC30090E6B9E0FF24F45003020CBFEF240A83F582EF241083F583E473F50BBF21BFBFE2
:200BE30037BF3D546CA00B0C0C0C0C0C0C0C0C0C0C0C120D39E5826003020CD590E6A0E0D5
:200C0300FF74014FF0020CD5120DC6E5826003020CD590E6A0E0FF74014FF0020CD5120EFD
:200C230014E5826003020CD590E6A0E0FF74014FF0020CD5120EC0020CD512039FAF82902C
:200C4300E740EFF090E68AE4F090E68B04F0020CD590E6BAE0F5821203A3E582707490E6DF
:200C6300A0E0FF74014FF0806990E6BCE0FF7517107518007519408F82120348E582700BFD
:200C830090E6A0E0FF74014FF0804790E740E510F090E68AE4F090E68B04F0803590E6BC95
:200CA300E0FF90E6BAE0F5178F82120365E582702190E6A0E0FF74014FF0801690E6B9E065
:200CC300F5821202FBE582700990E6A0E0FF74014FF090E6A0E0FF74804FF022AF828F06F2
:200CE30053067FEE24F75003020D35EE240A83F582EE240D83F583E4730E12253529352DED
:200D030035310D0D0D0D0D0D0D0D0D90E6A022EF30E7067EA27FE680047EA17FE68E828F85
:200D2300832290E6A32290E6A42290E6A52290E6A6229000002290E6B8E0FFBF8002801F7A
:200D4300BF81028005BF8273803490E740E4F090E741F090E68AF090E68B7402F08060E512
:200D63001225E0FFE511420790E740EFF090E741E4F090E68AF090E68B7402F0804190E66B
:200D8300BCE0F582120CDFAE82AF838E048F05EE4F7003F582228C828D83E0FC30E0047FE2
:200DA3000180027F0090E740EFF090E741E4F090E68AF090E68B7402F080047582002275A3
:200DC30082012290E6B8E0FF6005BF0237801190E6BAE0FFBF01057512008031758200224B
:200DE30090E6BAE0701A90E6BCE0F582120CDFAE82AF83E0FD5305FE8E828F83EDF0800DAF
:200E03007582002290E6B9E0F5820202FB7582012290E6B8E0FF6005BF026A801B90E6BAAF
:200E2300E0FFBF0202806790E6BAE0FFBF0105751201805A7582002290E6BAE0704390E69E
:200E4300BCE0F582120CDFAE82AF83EE4F7003F582228E828F83E0FD4305018E828F83ED7D
:200E6300F090E6BCE0FF53070F90E6BCE05480C423541FFE90E6832FF0E0FF74204FF0807D
:200E83000D7582002290E6B9E0F5820202FB75820122AF82D20110AF02C201EF600E75131D
:200EA3001C75141E75153675161E800C75133675141E75151C75161EA20192AF2290E6BB8C
:200EC300E0FFBF01028019BF02028029BF03028033BF0603020F7BBF0703020F90020F9F84
:200EE3007E007F1E8F0690E6B3EEF07E007F1E90E6B4EEF022AF1490E6B3EFF0AE1390E6F1
:200F0300B4EEF0227D507E1E7F8090E6BAE0F5177B008B020BEAB5170280428D008E018F5E
:200F2300028D828E838FF012103728F8E439F9880589068A0774012DF9E43EFA8F0489827C
:200F43008A838CF0121037F9B9030280067D007E007F00ED4E6006C3E5179B50B5ED4E605A
:200F63000D8E0790E6B3EFF090E6B4EDF02290E6A0E0FF74014FF0227E127F1E8F0690E698
:200F8300B3EEF07E127F1E90E6B4EEF022AF1690E6B3EFF0AE1590E6B4EEF02290E6A0E0B6
:060FA300FF74014FF02273
:2001C6007900E94400601B7A00901058780075921CE493F2A308B800020592D9F4DAF27578
:0201E60092FF86
:010FA9003215
:010FAA003214
:010FAB003213
:1B0FAC0020F71130F6138883A88220F509F6A8837583002280FEF280F5F02244
:010FC70032F7
:010FC80032F6
:010FC90032F5
:010FCA0032F4
:03004300021F0099
:201F00000203B1000203FD000203D800020FA900020422000204710002086400020FD40080
:201F2000020FD500020FD600020FD700020FDA00020FAB00020FC700020FC800020FCA00B9
:201F40000204C000020FD400021053000208650002086600020BC000020BC100020BC20028
:201F600002103600020FD400020FD400020FD400020FD300020FD800020FDB00020FDD00C3
:201F8000020FD900020FDC00020FDE0002103500020FCB00020FCD00020FCF00020FD100B8
:181FA000020FCC00020FCE00020FD000020FD200020FC900020FAA0014
:010FCB0032F3
:010FCC0032F2
:2001EE007800E84400600A790075921CE4F309D8FC7800E84400600C7900901C00E4F0A3E7
:04020E00D8FCD9FA45
:010FCD0032F1
:010FCE0032F0
:010FCF0032EF
:010FD00032EE
:010FD10032ED
:010FD20032EC
:010FD30032EB
:010FD40032EA
:010FD50032E9
:010FD60032E8
:010FD70032E7
:010FD80032E6
:010FD90032E5
:010FDA0032E4
:010FDB0032E3
:010FDC0032E2
:010FDD0032E1
:010FDE0032E0
:200FDF00AE82AF8390E600E05418C423541FFD70057CB1FD801C90E600E05418C423541F20
:200FFF00FBBB01067A617B0180047AC27B028A048B058C178D18151774FFB517021518E59C
:16101F0017451870F1EE24FFFAEF34FFFB8A068B07EA4B70DD22F8
:011035003288
:011036003287
:0D01B900758121121054E58260030201B629
:1C10370020F71430F6148883A88220F507E6A88375830022E280F7E49322E022C8
:01105300326A
:04105400758200227F
:00000001FF
