:040000000201B9320E
:01000B0032C2
:0100130032BA
:01001B0032B2
:0100230032AA
:01002B0032A2
:01003300329A
:01003B003292
:01004300328A
:01004B003282
:01005300327A
:01005B003272
:01006300326A
:03006B000203A8E5
:030073000203CFB6
:03007B0002075E1B
:03008300020EA2C8
:03008B000203F07D
:0300930002043F25
:03009B0002075BFE
:0300A300020ECE7C
:0300AB00020ECF73
:0300B300020ED06A
:0300BB00020ED35F
:0300C300020EA486
:0300CB00020EC062
:0300D300020EC159
:0300DB00020EC34F
:0300E300020AB955
:0300EB00020F4CB5
:0300F30002075CA5
:0300FB0002075D9C
:03010300020AB835
:03010B00020ABA2B
:03011300020ABB22
:03011B00020F2FA1
:03012300020ECCFD
:03012B00020ED1F0
:03013300020ED4E5
:03013B00020ED6DB
:03014300020ECDDC
:03014B00020ED2CF
:03015300020ED5C4
:03015B00020ED7BA
:03016300020F2E5A
:03016B00020EC4BD
:03017300020EC6B3
:03017B00020EC8A9
:03018300020ECA9F
:03018B00020EC59C
:03019300020EC792
:03019B00020EC988
:0301A300020ECB7E
:0301AB00020EC27F
:0301B300020EA396
:030224000201B61E
:0301B6000205211E
:2002270090E61274E8F00000000090E611E0FF747F5FF00000000090E610E0FF747F5FF094
:200247000000000090E613E0FF747F5FF00000000090E614E0FF747F5FF00000000090E6CC
:2002670015E0FF747F5FF00000000090E6047480F00000000090E6047402F0000000009073
:20028700E604E4F00000000090E6187408F00000000090E6207402F00000000090E621E428
:2002A700F00000000090E6D27402F0000000002290E740E4F090E74175F0007465120EA531
:2002C70090E68AE4F090E68B7402F02290E60AE090E740F090E68AE4F090E68B04F022AF19
:2002E70082BFB002801FBFB102800FBFB202801CBFB302801EBFB43C802B8F1090E68BE465
:20030700F0758201221202B7758201221202D37582012290E6BAE0F58212071790E68BE44A
:20032700F0758201227582FF12071790E68BE4F07582012275820022E582FF6004758200BD
:2003470022AD22AE23AF248D828E838FF0E4120EA575820122E582FF7004E5226004758263
:20036700002290E6837412F0E0FF74204FF090E6047480F00000000090E6047402F00000F5
:20038700000090E604E4F0000000007582012275820122AF82BF01047F0180027F008F824D
:2003A70022C0E0C082C083C007C0D075D000D200AF9174EF5FF59190E65D7401F0D0D0D051
:2003C70007D083D082D0E032C0E0C082C083C0D075D008AF9174EF5FF59190E65D7402F0C5
:2003E700D0D0D083D082D0E032C021C0E0C0F0C082C083C007C006C005C004C003C002C0BE
:2004070001C000C0D075D000758200120D8EAF9174EF5FF59190E65D7410F0D0D0D000D08C
:2004270001D002D003D004D005D006D007D083D082D0F0D0E0D02132C021C0E0C0F0C0820E
:20044700C083C007C006C005C004C003C002C001C000C0D075D000758201120D8EAF917408
:20046700EF5FF59190E65D7420F0D0D0D000D001D002D003D004D005D006D007D083D08269
:20048700D0F0D0E0D0213290E60B7403F0C20075100090E680E0FF740A4FF09005DC120E70
:2004A700D890E680E0FF74F75FF090E600E0FF74E75F4410F0E500D2E890E668E0FF7408A3
:2004C7004FF090E65CE0FF74014FF0E0FF74024FF0E0FF74204FF0E0FF74104FF0D2AF12F6
:2004E70002270205C6300005120ABCC200E510602674B1B5101E90E6A0E0FF20E11990E628
:200507008BE0FFBF030990E74075F000120685751000800375100002072012048E1204EC8A
:0205270080FB57
:2005290075AF03759AE4759B007E007F0090E67BE4F00EBE00010FC3EE9480EF648094803E
:2005490040EB2290E6F3E4F090E6C3F090E6C1F090E6C2F090E6C074E4F090E6F4E4F09044
:20056900E6D3F02290E67174FFF0F5B490E672E0FF74804FF043B6800000000090E6C5E422
:20058900F00000000090E6C4E4F0E5B275B2FF00000000858080000000002290E6C6E4F0E0
:2005A90090E6C7F090E6C8F090E6C9F090E6CAF090E6CBF090E6CCF090E6CDF02290E60149
:2005C900744FF090E6F574FFF012054C12052912056D1205A4C2012285822385832485F0FF
:2005E90025AD23AE24AF258D828E838FF0E522120EA574082DFAE43EFB8F048A828B838CF3
:20060900F0E4120EA574102DFAE43EFB8F048A828B838CF0E4120EA574182DFDE43EFE8D3B
:20062900828E838FF0E4020EA585822285832385F024AD22AE23AF248D828E838FF074BDD6
:20064900120EA574082DFAE43EFB8F048A828B838CF07403120EA574102DFAE43EFB8F044C
:200669008A828B838CF0E4120EA574182DFDE43EFE8D828E838FF07436020EA5AD82AE83FE
:20068900AFF0E5BB30E7FB8D828E838FF0120F30FC30E50890E6187409F0800690E6187474
:2006A90008F0000000008D828E838FF0120F30FD30E00690E601745EF075220090E400757D
:2006C900F0001205E175220090E40175F0001205E175220090E40275F0001205E1752200BF
:2006E90090E40375F0001205E175220090E40475F0001205E190E40575F0001206329000F9
:2007090001120984758200120AA1D201D32285828000000000D322300137E5BB30E7329057
:20072900E6047480F00000000090E618E4F00000000090E6047402F00000000090E618749E
:1207490008F00000000090E604E4F000000000C2012273
:201E000012010002FFFFFF4004B403100100010200010A060002FFFFFF400100090219002C
:151E200001010080320904000001FFFFFF00070582020002005C
:191E36000902190001010080320904000001FFFFFF0007058202400000E0
:201E500004030904160353006500720067002000530069007A006F0076001C03660078007C
:181E700032006C006100660077002D0063006100700074007200000037
:01075B00326B
:01075C00326A
:01075D003269
:01075E003268
:20075F0085822585832685F02790E601E0FC74FC5CF0E0FC74024CF090E6F574FFF0AA224D
:20077F00AB23AC248A828B838CF0120F3090E6F3F074012AF8E43BF98C07888289838FF0A5
:20079F00120F30F890E6C3F074022AFDE43BFE8C078D828E838FF0120F3090E6C1F07403ED
:2007BF002AFDE43BFE8C078D828E838FF0120F3090E6C2F074052AFDE43BFE8C078D828E3E
:2007DF00838FF0120F3090E6C0F074062AFAE43BFB8A828B838CF0120F30FA90E6F4F07519
:2007FF00AF07AD25AE268E078F9A7E008D9B759DE48E9E7F0090E67BE0FE90E67CF00FBFFA
:20081F00800040F190E67174FFF0F5B490E672E0FF74804FF043B6800000000090E6C4E484
:20083F00F00000000090E6C5E4F090E6C6F090E6C7F090E6C8F090E6C9F090E6CAF090E63E
:20085F00CBF090E6CCF090E6CDF022AD82AE83AFF0E52275F009A4FC2DF9E43EFA8F0389C6
:20087F00828A838BF0120F3090E6C6F07B0074012CF9E43BFAE92DF9EA3EF88F0289828851
:20089F00838AF0120F3090E6C7F074022CF9E43BFAE92DF9EA3EF88F02898288838AF012A8
:2008BF000F3090E6C8F074032CF9E43BFAE92DF9EA3EF88F02898288838AF0120F3090E6E0
:2008DF00C9F074042CF9E43BFAE92DF9EA3EF88F02898288838AF0120F3090E6CAF0740540
:2008FF002CF9E43BFAE92DF9EA3EF88F02898288838AF0120F3090E6CBF074062CF9E43B0B
:20091F00FAE92DF9EA3EF88F02898288838AF0120F3090E6CCF074072CFCE43BFBEC2DFD18
:20093F00EB3EFE8D828E838FF0120F3090E6CDF022AC82AD83AEF0FF8E028F038B0190E60D
:20095F00CEE9F0000000007B0090E6CFEAF0000000007E008D0790E6D0EFF0000000009070
:20097F00E6D1ECF022AE82AF838F0590E6D0EDF00000000090E6D1EEF022858224858325EB
:20099F0085F026E5BB30E7FB90E6F1E0FC7B008524828525838526F0EC120EA5A3EB120EDB
:2009BF00A5E52224FFFBE52334FFFC7A008A007900C3E89522E99523506EE5BB30E7FBEA3D
:2009DF0075F002A42524F8E52535F0F9AF26AEBD7D00888289838FF0ED120EA5A3EE120ECF
:2009FF00A5882789288F29888289838FF0120F30FEA3120F30FF8A017D00E9B50308EDB5F1
:200A1F000404ADBF8002ADBE8D017D00E94206ED42078527828528838529F0EE120EA5A392
:200A3F00EF120EA50A0209CC2285822485832585F0267C008C027B00C3EA9522EB95235011
:200A5F0040E5BB30E7FBEC75F002A42524F9E52535F0FAAB2689828A838BF0120F30A312B9
:200A7F000F30FFF890E6F0E8F089828A838BF0120F30F9A3120F307A0090E6F1E9F00C80CC
:190A9F00B322AF82E5BB30E7FB74044FF5BB22AF82E5BB30E7FB8FBB229E
:010AB800320B
:010AB900320A
:010ABA003209
:010ABB003208
:0601E800E478FFF6D8FDEB
:1202120075150075160075173675181E75191C751A1E01
:200ABC0090E6B9E0FF24F45003020BB8EF240A83F582EF241083F583E473EE04B81AB8B81C
:200ADC0030B8364D65990A0B0B0B0B0B0B0B0B0B0B0B120C32E5826003020BCE90E6A0E023
:200AFC00FF74014FF0020BCE120CBFE5826003020BCE90E6A0E0FF74014FF0020BCE120D27
:200B1C000DE5826003020BCE90E6A0E0FF74014FF0020BCE120DB9020BCE120396AF829064
:200B3C00E740EFF090E68AE4F090E68B04F0020BCE90E6BAE0F58212039AE582707490E6F8
:200B5C00A0E0FF74014FF0806990E6BCE0FF7522147523007524408F8212033FE582700BE9
:200B7C0090E6A0E0FF74014FF0804790E740E514F090E68AE4F090E68B04F0803590E6BC99
:200B9C00E0FF90E6BAE0F5228F8212035CE582702190E6A0E0FF74014FF0801690E6B9E06B
:200BBC00F5821202E6E582700990E6A0E0FF74014FF090E6A0E0FF74804FF022AF828F060F
:200BDC0053067FEE24F75003020C2EEE240A83F582EE240D83F583E473070B1E2E222E262E
:200BFC002E2A0C0C0C0C0C0C0C0C0C90E6A022EF30E7067EA27FE680047EA17FE68E828FA5
:200C1C00832290E6A32290E6A42290E6A52290E6A6229000002290E6B8E0FFBF8002801F82
:200C3C00BF81028005BF8273803490E740E4F090E741F090E68AF090E68B7402F08060E51A
:200C5C001625E0FFE515420790E740EFF090E741E4F090E68AF090E68B7402F0804190E66B
:200C7C00BCE0F582120BD8AE82AF838E048F05EE4F7003F582228C828D83E0FC30E0047FF2
:200C9C000180027F0090E740EFF090E741E4F090E68AF090E68B7402F080047582002275AB
:200CBC0082012290E6B8E0FF6005BF0237801190E6BAE0FFBF01057516008031758200224F
:200CDC0090E6BAE0701A90E6BCE0F582120BD8AE82AF83E0FD5305FE8E828F83EDF0800DBF
:200CFC007582002290E6B9E0F5820202E67582012290E6B8E0FF6005BF026A801B90E6BACD
:200D1C00E0FFBF0202806790E6BAE0FFBF0105751601805A7582002290E6BAE0704390E6A2
:200D3C00BCE0F582120BD8AE82AF83EE4F7003F582228E828F83E0FD4305018E828F83ED8D
:200D5C00F090E6BCE0FF53070F90E6BCE05480C423541FFE90E6832FF0E0FF74204FF08085
:200D7C000D7582002290E6B9E0F5820202E675820122AF82D20210AF02C202EF600E751734
:200D9C001C75181E751936751A1E800C75173675181E75191C751A1EA20292AF2290E6BB77
:200DBC00E0FFBF01028019BF02028029BF03028033BF0603020E74BF0703020E89020E98A4
:200DDC007E007F1E8F0690E6B3EEF07E007F1E90E6B4EEF022AF1890E6B3EFF0AE1790E6F1
:200DFC00B4EEF0227D507E1E7F8090E6BAE0F5227B008B020BEAB5220280428D008E018F51
:200E1C00028D828E838FF0120F3028F8E439F9880589068A0774012DF9E43EFA8F0489828C
:200E3C008A838CF0120F30F9B9030280067D007E007F00ED4E6006C3E5229B50B5ED4E605F
:200E5C000D8E0790E6B3EFF090E6B4EDF02290E6A0E0FF74014FF0227E127F1E8F0690E6A0
:200E7C00B3EEF07E127F1E90E6B4EEF022AF1A90E6B3EFF0AE1990E6B4EEF02290E6A0E0B6
:060E9C00FF74014FF0227B
:2001C6007900E94400601B7A00900F51780075921CE493F2A308B800020592D9F4DAF27580
:0201E60092FF86
:010EA200321D
:010EA300321C
:010EA400321B
:1B0EA50020F71130F6138883A88220F509F6A8837583002280FEF280F5F0224C
:010EC00032FF
:010EC10032FE
:010EC20032FD
:010EC30032FC
:03004300021F0099
:201F00000203A8000203CF0002075E00020EA2000203F00002043F0002075B00020ECD00AC
:201F2000020ECE00020ECF00020ED000020ED300020EA400020EC000020EC100020EC300F9
:201F4000020AB900020ECD00020F4C0002075C0002075D00020AB800020ABA00020ABB0066
:201F6000020F2F00020ECD00020ECD00020ECD00020ECC00020ED100020ED400020ED60003
:201F8000020ED200020ED500020ED700020F2E00020EC400020EC600020EC800020ECA00F8
:181FA000020EC500020EC700020EC900020ECB00020EC200020EA30044
:010EC40032FB
:010EC50032FA
:2001EE007800E84400600A790075921CE4F309D8FC7800E84400600C7900901C00E4F0A3E7
:04020E00D8FCD9FA45
:010EC60032F9
:010EC70032F8
:010EC80032F7
:010EC90032F6
:010ECA0032F5
:010ECB0032F4
:010ECC0032F3
:010ECD0032F2
:010ECE0032F1
:010ECF0032F0
:010ED00032EF
:010ED10032EE
:010ED20032ED
:010ED30032EC
:010ED40032EB
:010ED50032EA
:010ED60032E9
:010ED70032E8
:200ED800AE82AF8390E600E05418C423541FFD70057CB1FD801C90E600E05418C423541F28
:200EF800FBBB01067A617B0180047AC27B028A048B058C228D23152274FFB522021523E56D
:160F180022452370F1EE24FFFAEF34FFFB8A068B07EA4B70DD22EA
:010F2E003290
:010F2F00328F
:0D01B900758129120F4DE58260030201B629
:1C0F300020F71430F6148883A88220F507E6A88375830022E280F7E49322E022D0
:010F4C003272
:040F4D007582002287
:00000001FF
