:201E000012010002FFFFFF4004B403100100010200010A060002FFFFFF400100090219002C
:151E200001010080320904000001FFFFFF00070582020002005C
:191E36000902190001010080320904000001FFFFFF0007058202400000E0
:201E500004030904160353006500720067002000530069007A006F0076001C03660078007C
:181E700032006C006100660077002D0063006100700074007200000037
:040000000201B9320E
:01000B0032C2
:0100130032BA
:01001B0032B2
:0100230032AA
:01002B0032A2
:01003300329A
:01003B003292
:01004300328A
:01004B003282
:01005300327A
:01005B003272
:01006300326A
:03006B000203B1DC
:030073000203FD88
:03007B000203D8A5
:03008300020F3732
:03008B000204224A
:03009300020471F3
:03009B000207F267
:0300A300020F63E6
:0300AB00020F64DD
:0300B300020F65D4
:0300BB00020F68C9
:0300C300020F39F0
:0300CB00020F55CC
:0300D300020F56C3
:0300DB00020F58B9
:0300E3000204C054
:0300EB00020FE120
:0300F3000207F30E
:0300FB000207F405
:03010300020B4E9E
:03010B00020B4F95
:03011300020B508C
:03011B00020FC40C
:03012300020F6167
:03012B00020F665A
:03013300020F694F
:03013B00020F6B45
:03014300020F6246
:03014B00020F6739
:03015300020F6A2E
:03015B00020F6C24
:03016300020FC3C5
:03016B00020F5927
:03017300020F5B1D
:03017B00020F5D13
:03018300020F5F09
:03018B00020F5A06
:03019300020F5CFC
:03019B00020F5EF2
:0301A300020F60E8
:0301AB00020F57E9
:0301B300020F3800
:030227000201B61B
:0301B6000205E55A
:20022A0090E61274E0F00000000090E611E0FF747F5FF00000000090E610E0FF747F5FF099
:20024A000000000090E613E0FF747F5FF00000000090E614E0FF747F5FF00000000090E6C9
:20026A0015E0FF747F5FF00000000090E6047480F00000000090E6047402F0000000009070
:20028A00E604E4F00000000090E6187408F00000000090E6207402F00000000090E621E425
:2002AA00F00000000090E6D27402F0000000002290E740E4F090E74175F0007465120F3A98
:2002CA0090E68AE4F00000000090E68B7402F0000000002290E60AE0FF90E740F090E68AB1
:2002EA00E4F00000000090E68B7401F00000000022AF82BFB002801EBFB102800ABFB202E9
:20030A00801BBFB335801D8F0890E68BE4F000000000758201221202BA758201221202DE94
:20032A007582012290E6BAE0F5821207E190E68BE4F0000000007582012275820022E582A9
:20034A00FF600475820022AD14AE15AF168D828E838FF0E4120F3A75820122E582FF7004FC
:20036A00E51460047582002290E6837412F0E0FF74204FF090E6047480F00000000090E608
:20038A00047402F00000000090E604E4F0000000007582012275820122AF82BF01047F01F2
:2003AA0080027F008F8222C0E0C082C083C007C0D075D000D200AF9174EF5FF59190E65D11
:2003CA007401F0D0D0D007D083D082D0E032C0E0C082C083C007C0D075D000AF9174EF5FED
:2003EA00F59190E65D7404F0D0D0D007D083D082D0E032C0E0C082C083C007C0D075D00073
:20040A00AF9174EF5FF59190E65D7402F0D0D0D007D083D082D0E032C021C0E0C0F0C082A0
:20042A00C083C007C006C005C004C003C002C001C000C0D075D000758200120E23AF917490
:20044A00EF5FF59190E65D7410F0D0D0D000D001D002D003D004D005D006D007D083D08296
:20046A00D0F0D0E0D02132C021C0E0C0F0C082C083C007C006C005C004C003C002C001C00D
:20048A0000C0D075D000758201120E23AF9174EF5FF59190E65D7420F0D0D0D000D001D052
:2004AA0002D003D004D005D006D007D083D082D0F0D0E0D02132C021C0E0C0F0C082C08319
:2004CA00C007C006C005C004C003C002C001C000C0D075D00090E658E0FFE4F0AE9174EFFE
:2004EA005EF59190E659E0FE30E20C7401B50907C0071207D1D00790E65974FFF090E65B7E
:20050A007401F00000000090E658EFF000000000D0D0D000D001D002D003D004D005D0065A
:20052A00D007D083D082D0F0D0E0D0213290E60B7403F0C20075080090E680E0FF740A4FD9
:20054A00F09005DC120F6D90E680E0FF74F75FF090E600E0FF74E75F4410F0E500D2E89091
:20056A00E668E0FF74084FF090E65CE0FF74014FF090E65AE0FF74014FF090E658E0FF74A0
:20058A00044FF090E65CE0FF74024FF0E0FF74204FF0E0FF74104FF0D2AF12022A02068A03
:2005AA00300005120B51C200E508602C74B1B5082490E6A0E0FF20E11F90E68BE0FFBF0396
:2005CA000F7582011207E190E74075F00012074A75080080037508000207EA1205371205BC
:0305EA00AA80FBE9
:030212007509006B
:2005ED0075AF03759AE4759B007E007F0090E67BE4F00EBE00010FC3EE9480EF648094807A
:20060D0040EB2290E6F3E4F090E6C3F090E6C1F090E6C2F090E6C074E4F090E6F4E4F0907F
:20062D00E6D3F02290E67174FFF0F5B490E672E0FF74804FF043B6800000000090E6C5E45D
:20064D00F00000000090E6C4E4F0E5B275B2FF00000000858080000000002290E6C6E4F01B
:20066D0090E6C7F090E6C8F090E6C9F090E6CAF090E6CBF090E6CCF090E6CDF02290E60184
:20068D0074C6F090E6F574FFF01206101205ED120631120668750900228582158583168501
:2006AD00F017AD15AE16AF178D828E838FF0E514120F3A74082DFAE43EFB8F048A828B837A
:2006CD008CF0E4120F3A74102DFAE43EFB8F048A828B838CF0E4120F3A74182DFDE43EFE4C
:2006ED008D828E838FF0E4020F3A85821485831585F016AD14AE15AF168D828E838FF07400
:20070D00BD120F3A74082DFAE43EFB8F048A828B838CF07403120F3A74102DFAE43EFB8FA2
:20072D00048A828B838CF0E4120F3A74182DFDE43EFE8D828E838FF07436020F3AAD82AE8C
:20074D0083AFF0E5BB30E7FB8D828E838FF0120FC5FC30E50890E6187409F0800690E6180B
:20076D007408F0000000008D828E838FF0120FC5FD30E00690E601745EF075140090E40032
:20078D0075F0001206A675140090E40175F0001206A675140090E40275F0001206A675145D
:2007AD000090E40375F0001206A675140090E40475F0001206A690E40575F0001206F7750C
:2007CD000901D322900001120A1A758200120B377509022285828000000000D3227402B5B2
:0507ED000902E5BB223A
:0107F20032D4
:0107F30032D3
:0107F40032D2
:2007F50085821785831885F01990E601E0FC74FC5CF0E0FC74024CF090E6F574FFF0AA14EF
:20081500AB15AC168A828B838CF0120FC590E6F3F074012AF8E43BF98C07888289838FF095
:20083500120FC5F890E6C3F074022AFDE43BFE8C078D828E838FF0120FC590E6C1F074032C
:200855002AFDE43BFE8C078D828E838FF0120FC590E6C2F074052AFDE43BFE8C078D828E12
:20087500838FF0120FC590E6C0F074062AFAE43BFB8A828B838CF0120FC5FA90E6F4F07558
:20089500AF07AD17AE188E078F9A7E008D9B759DE48E9E7F0090E67BE0FE90E67CF00FBF7F
:2008B500800040F190E67174FFF0F5B490E672E0FF74804FF043B6800000000090E6C4E4EE
:2008D500F00000000090E6C5E4F090E6C6F090E6C7F090E6C8F090E6C9F090E6CAF090E6A8
:2008F500CBF090E6CCF090E6CDF022AD82AE83AFF0E51475F009A4FC2DF9E43EFA8F03893E
:20091500828A838BF0120FC590E6C6F07B0074012CF9E43BFAE92DF9EA3EF88F0289828825
:20093500838AF0120FC590E6C7F074022CF9E43BFAE92DF9EA3EF88F02898288838AF0127C
:200955000FC590E6C8F074032CF9E43BFAE92DF9EA3EF88F02898288838AF0120FC590E61F
:20097500C9F074042CF9E43BFAE92DF9EA3EF88F02898288838AF0120FC590E6CAF0740514
:200995002CF9E43BFAE92DF9EA3EF88F02898288838AF0120FC590E6CBF074062CF9E43BDF
:2009B500FAE92DF9EA3EF88F02898288838AF0120FC590E6CCF074072CFCE43BFBEC2DFDED
:2009D500EB3EFE8D828E838FF0120FC590E6CDF022AC82AD83AEF0FF8E028F038B0190E6E2
:2009F500CEE9F0000000007B0090E6CFEAF0000000007E008D0790E6D0EFF00000000090DA
:200A1500E6D1ECF022AE82AF838F0590E6D0EDF00000000090E6D1EEF02285821685831770
:200A350085F018E5BB30E7FB90E6F1E0FC7B008516828517838518F0EC120F3AA3EB120FE5
:200A55003AE51424FFFBE51534FFFC7A008A007900C3E89514E99515506EE5BB30E7FBEA49
:200A750075F002A42516F8E51735F0F9AF18AEBD7D00888289838FF0ED120F3AA3EE120FCB
:200A95003A8819891A8F1B888289838FF0120FC5FEA3120FC5FF8A017D00E9B50308EDB5C5
:200AB5000404ADBF8002ADBE8D017D00E94206ED4207851982851A83851BF0EE120F3AA390
:200AD500EF120F3A0A020A622285821685831785F0187C008C027B00C3EA9514EB95155094
:200AF50040E5BB30E7FBEC75F002A42516F9E51735F0FAAB1889828A838BF0120FC5A312B8
:200B15000FC5FFF890E6F0E8F089828A838BF0120FC5F9A3120FC57A0090E6F1E9F00C8076
:190B3500B322AF82E5BB30E7FB74044FF5BB22AF82E5BB30E7FB8FBB2207
:010B4E003274
:010B4F003273
:010B50003272
:0601E800E478FFF6D8FDEB
:12021500750E00750F0075103675111E75121C75131E28
:200B510090E6B9E0FF24F45003020C4DEF240A83F582EF241083F583E47383994DAF4D4D72
:200B7100C54DCBE2FA2E0B0B0C0B0C0C0B0C0B0B0B0C120CC7E5826003020C6390E6A0E0DE
:200B9100FF74014FF0020C63120D54E5826003020C6390E6A0E0FF74014FF0020C63120D39
:200BB100A2E5826003020C6390E6A0E0FF74014FF0020C63120E4E020C6312039FAF8290D9
:200BD100E740EFF090E68AE4F090E68B04F0020C6390E6BAE0F5821203A3E582707490E6C4
:200BF100A0E0FF74014FF0806990E6BCE0FF75140D7515007516408F82120348E582700B7C
:200C110090E6A0E0FF74014FF0804790E740E50DF090E68AE4F090E68B04F0803590E6BC0A
:200C3100E0FF90E6BAE0F5148F82120365E582702190E6A0E0FF74014FF0801690E6B9E0DA
:200C5100F5821202FBE582700990E6A0E0FF74014FF090E6A0E0FF74804FF022AF828F0664
:200C710053067FEE24F75003020CC3EE240A83F582EE240D83F583E4739CA0B3C3B7C3BBF0
:200C9100C3BF0C0C0C0C0C0C0C0C0C90E6A022EF30E7067EA27FE680047EA17FE68E828FE5
:200CB100832290E6A32290E6A42290E6A52290E6A6229000002290E6B8E0FFBF8002801FED
:200CD100BF81028005BF8273803490E740E4F090E741F090E68AF090E68B7402F08060E585
:200CF1000F25E0FFE50E420790E740EFF090E741E4F090E68AF090E68B7402F0804190E6E4
:200D1100BCE0F582120C6DAE82AF838E048F05EE4F7003F582228C828D83E0FC30E0047FC6
:200D31000180027F0090E740EFF090E741E4F090E68AF090E68B7402F08004758200227515
:200D510082012290E6B8E0FF6005BF0237801190E6BAE0FFBF0105750F00803175820022C0
:200D710090E6BAE0701A90E6BCE0F582120C6DAE82AF83E0FD5305FE8E828F83EDF0800D93
:200D91007582002290E6B9E0F5820202FB7582012290E6B8E0FF6005BF026A801B90E6BA22
:200DB100E0FFBF0202806790E6BAE0FFBF0105750F01805A7582002290E6BAE0704390E614
:200DD100BCE0F582120C6DAE82AF83EE4F7003F582228E828F83E0FD4305018E828F83ED62
:200DF100F090E6BCE0FF53070F90E6BCE05480C423541FFE90E6832FF0E0FF74204FF080F0
:200E11000D7582002290E6B9E0F5820202FB75820122AF82D20110AF02C201EF600E751092
:200E31001C75111E75123675131E800C75103675111E75121C75131EA20192AF2290E6BB13
:200E5100E0FFBF01028019BF02028029BF03028033BF0603020F09BF0703020F1E020F2D4C
:200E71007E007F1E8F0690E6B3EEF07E007F1E90E6B4EEF022AF1190E6B3EFF0AE1090E669
:200E9100B4EEF0227D507E1E7F8090E6BAE0F5147B008B020BEAB5140280428D008E018FD7
:200EB100028D828E838FF0120FC528F8E439F9880589068A0774012DF9E43EFA8F04898262
:200ED1008A838CF0120FC5F9B9030280067D007E007F00ED4E6006C3E5149B50B5ED4E6043
:200EF1000D8E0790E6B3EFF090E6B4EDF02290E6A0E0FF74014FF0227E127F1E8F0690E60B
:200F1100B3EEF07E127F1E90E6B4EEF022AF1390E6B3EFF0AE1290E6B4EEF02290E6A0E02E
:060F3100FF74014FF022E5
:2001C6007900E94400601B7A00900FE6780075921CE493F2A308B800020592D9F4DAF275EB
:0201E60092FF86
:010F37003287
:010F38003286
:010F39003285
:1B0F3A0020F71130F6138883A88220F509F6A8837583002280FEF280F5F022B6
:010F55003269
:010F56003268
:010F57003267
:010F58003266
:03004300021F0099
:201F00000203B1000203FD000203D800020F370002042200020471000207F200020F6200D7
:201F2000020F6300020F6400020F6500020F6800020F3900020F5500020F5600020F580049
:201F40000204C000020F6200020FE1000207F3000207F400020B4E00020B4F00020B500049
:201F6000020FC400020F6200020F6200020F6200020F6100020F6600020F6900020F6B0054
:201F8000020F6700020F6A00020F6C00020FC300020F5900020F5B00020F5D00020F5F0049
:181FA000020F5A00020F5C00020F5E00020F6000020F5700020F3800C0
:010F59003265
:010F5A003264
:2001EE007800E84400600A790075921CE4F309D8FC7800E84400600C7900901C00E4F0A3E7
:04020E00D8FCD9FA45
:010F5B003263
:010F5C003262
:010F5D003261
:010F5E003260
:010F5F00325F
:010F6000325E
:010F6100325D
:010F6200325C
:010F6300325B
:010F6400325A
:010F65003259
:010F66003258
:010F67003257
:010F68003256
:010F69003255
:010F6A003254
:010F6B003253
:010F6C003252
:200F6D00AE82AF8390E600E05418C423541FFD70057CB1FD801C90E600E05418C423541F92
:200F8D00FBBB01067A617B0180047AC27B028A048B058C148D15151474FFB514021515E51D
:160FAD0014451570F1EE24FFFAEF34FFFB8A068B07EA4B70DD2271
:010FC30032FB
:010FC40032FA
:0D01B900758121120FE2E58260030201B69C
:1C0FC50020F71430F6148883A88220F507E6A88375830022E280F7E49322E0223B
:010FE10032DD
:040FE20075820022F2
:00000001FF
