:040000000201B9320E
:01000B0032C2
:0100130032BA
:01001B0032B2
:0100230032AA
:01002B0032A2
:01003300329A
:01003B003292
:01004300328A
:01004B003282
:01005300327A
:01005B003272
:01006300326A
:03006B00020394F9
:030073000203BBCA
:03007B0002074A2F
:03008300020E8EDC
:03008B000203DC91
:0300930002042B39
:03009B0002074712
:0300A300020EBA90
:0300AB00020EBB87
:0300B300020EBC7E
:0300BB00020EBF73
:0300C300020E909A
:0300CB00020EAC76
:0300D300020EAD6D
:0300DB00020EAF63
:0300E300020AA569
:0300EB00020F38C9
:0300F300020748B9
:0300FB00020749B0
:03010300020AA449
:03010B00020AA63F
:03011300020AA736
:03011B00020F1BB5
:03012300020EB811
:03012B00020EBD04
:03013300020EC0F9
:03013B00020EC2EF
:03014300020EB9F0
:03014B00020EBEE3
:03015300020EC1D8
:03015B00020EC3CE
:03016300020F1A6E
:03016B00020EB0D1
:03017300020EB2C7
:03017B00020EB4BD
:03018300020EB6B3
:03018B00020EB1B0
:03019300020EB3A6
:03019B00020EB59C
:0301A300020EB792
:0301AB00020EAE93
:0301B300020E8FAA
:030224000201B61E
:0301B60002050D32
:2002270090E61274E8F00000000090E611E0FF747F5FF00000000090E610E0FF747F5FF094
:200247000000000090E613E0FF747F5FF00000000090E614E0FF747F5FF00000000090E6CC
:2002670015E0FF747F5FF00000000090E6047480F00000000090E6047402F0000000009073
:20028700E604E4F00000000090E6187408F00000000090E6207402F00000000090E621E428
:2002A700F00000000090E6D27402F0000000002290E740E4F090E74175F0007465120E9145
:2002C70090E68AE4F090E68B7402F02290E60AE090E740F090E68AE4F090E68B04F022AF19
:2002E70082BFB002801ABFB102800ABFB2028017BFB32D80198F1090E68BE4F0758201229E
:200307001202B7758201221202D37582012290E6BAE0F58212070390E68BE4F0758201225E
:2003270075820022E582FF600475820022AD22AE23AF248D828E838FF0E4120E917582011B
:2003470022E582FF7004E52260047582002290E6837412F0E0FF74204FF090E6047480F097
:200367000000000090E6047402F00000000090E604E4F0000000007582012275820122AF65
:2003870082BF01047F0180027F008F8222C0E0C082C083C007C0D075D000D200AF9174EF26
:2003A7005FF59190E65D7401F0D0D0D007D083D082D0E032C0E0C082C083C0D075D008AF6A
:2003C7009174EF5FF59190E65D7402F0D0D0D083D082D0E032C021C0E0C0F0C082C083C067
:2003E70007C006C005C004C003C002C001C000C0D075D000758200120D7AAF9174EF5FF53E
:200407009190E65D7410F0D0D0D000D001D002D003D004D005D006D007D083D082D0F0D08C
:20042700E0D02132C021C0E0C0F0C082C083C007C006C005C004C003C002C001C000C0D050
:2004470075D000758201120D7AAF9174EF5FF59190E65D7420F0D0D0D000D001D002D003FA
:20046700D004D005D006D007D083D082D0F0D0E0D0213290E60B7403F0C20075100090E642
:2004870080E0FF740A4FF09005DC120EC490E680E0FF74F75FF090E600E0FF74E75F4410F2
:2004A700F0E500D2E890E668E0FF74084FF090E65CE0FF74014FF0E0FF74024FF0E0FF74E2
:2004C700204FF0E0FF74104FF0D2AF1202270205B2300005120AA8C200E510602674B1B58F
:2004E700101E90E6A0E0FF20E11990E68BE0FFBF030990E74075F000120671751000800360
:0E05070075100002070C12047A1204D880FB53
:2005150075AF03759AE4759B007E007F0090E67BE4F00EBE00010FC3EE9480EF6480948052
:2005350040EB2290E6F3E4F090E6C3F090E6C1F090E6C2F090E6C074E4F090E6F4E4F09058
:20055500E6D3F02290E67174FFF0F5B490E672E0FF74804FF043B6800000000090E6C5E436
:20057500F00000000090E6C4E4F0E5B275B2FF00000000858080000000002290E6C6E4F0F4
:2005950090E6C7F090E6C8F090E6C9F090E6CAF090E6CBF090E6CCF090E6CDF02290E6015D
:2005B500744FF090E6F574FFF0120538120515120559120590C2012285822385832485F063
:2005D50025AD23AE24AF258D828E838FF0E522120E9174082DFAE43EFB8F048A828B838C1B
:2005F500F0E4120E9174102DFAE43EFB8F048A828B838CF0E4120E9174182DFDE43EFE8D78
:20061500828E838FF0E4020E9185822285832385F024AD22AE23AF248D828E838FF074BDFE
:20063500120E9174082DFAE43EFB8F048A828B838CF07403120E9174102DFAE43EFB8F0488
:200655008A828B838CF0E4120E9174182DFDE43EFE8D828E838FF07436020E91AD82AE833A
:20067500AFF0E5BB30E7FB8D828E838FF0120F1CFC30E50890E6187409F0800690E618749C
:2006950008F0000000008D828E838FF0120F1CFD30E00690E601745EF075220090E40075A5
:2006B500F0001205CD75220090E40175F0001205CD75220090E40275F0001205CD7522000F
:2006D50090E40375F0001205CD75220090E40475F0001205CD90E40575F00012061E900049
:2006F50001120970758200120A8DD201D32285828000000000D322300137E5BB30E7329094
:20071500E6047480F00000000090E618E4F00000000090E6047402F00000000090E61874B2
:1207350008F00000000090E604E4F000000000C2012287
:201E000012010002FFFFFF4004B403100100010200010A060002FFFFFF400100090219002C
:151E200001010080320904000001FFFFFF00070582020002005C
:191E36000902190001010080320904000001FFFFFF0007058202400000E0
:201E500004030904160353006500720067002000530069007A006F0076001C03660078007C
:181E700032006C006100660077002D0063006100700074007200000037
:01074700327F
:01074800327E
:01074900327D
:01074A00327C
:20074B0085822585832685F02790E601E0FC74FC5CF0E0FC74024CF090E6F574FFF0AA2261
:20076B00AB23AC248A828B838CF0120F1C90E6F3F074012AF8E43BF98C07888289838FF0CD
:20078B00120F1CF890E6C3F074022AFDE43BFE8C078D828E838FF0120F1C90E6C1F0740329
:2007AB002AFDE43BFE8C078D828E838FF0120F1C90E6C2F074052AFDE43BFE8C078D828E66
:2007CB00838FF0120F1C90E6C0F074062AFAE43BFB8A828B838CF0120F1CFA90E6F4F07555
:2007EB00AF07AD25AE268E078F9A7E008D9B759DE48E9E7F0090E67BE0FE90E67CF00FBF0E
:20080B00800040F190E67174FFF0F5B490E672E0FF74804FF043B6800000000090E6C4E498
:20082B00F00000000090E6C5E4F090E6C6F090E6C7F090E6C8F090E6C9F090E6CAF090E652
:20084B00CBF090E6CCF090E6CDF022AD82AE83AFF0E52275F009A4FC2DF9E43EFA8F0389DA
:20086B00828A838BF0120F1C90E6C6F07B0074012CF9E43BFAE92DF9EA3EF88F0289828879
:20088B00838AF0120F1C90E6C7F074022CF9E43BFAE92DF9EA3EF88F02898288838AF012D0
:2008AB000F1C90E6C8F074032CF9E43BFAE92DF9EA3EF88F02898288838AF0120F1C90E61C
:2008CB00C9F074042CF9E43BFAE92DF9EA3EF88F02898288838AF0120F1C90E6CAF0740568
:2008EB002CF9E43BFAE92DF9EA3EF88F02898288838AF0120F1C90E6CBF074062CF9E43B33
:20090B00FAE92DF9EA3EF88F02898288838AF0120F1C90E6CCF074072CFCE43BFBEC2DFD40
:20092B00EB3EFE8D828E838FF0120F1C90E6CDF022AC82AD83AEF0FF8E028F038B0190E635
:20094B00CEE9F0000000007B0090E6CFEAF0000000007E008D0790E6D0EFF0000000009084
:20096B00E6D1ECF022AE82AF838F0590E6D0EDF00000000090E6D1EEF022858224858325FF
:20098B0085F026E5BB30E7FB90E6F1E0FC7B008524828525838526F0EC120E91A3EB120E03
:2009AB0091E52224FFFBE52334FFFC7A008A007900C3E89522E99523506EE5BB30E7FBEA65
:2009CB0075F002A42524F8E52535F0F9AF26AEBD7D00888289838FF0ED120E91A3EE120EF7
:2009EB0091882789288F29888289838FF0120F1CFEA3120F1CFF8A017D00E9B50308EDB541
:200A0B000404ADBF8002ADBE8D017D00E94206ED42078527828528838529F0EE120E91A3BA
:200A2B00EF120E910A0209B82285822485832585F0267C008C027B00C3EA9522EB9523504D
:200A4B0040E5BB30E7FBEC75F002A42524F9E52535F0FAAB2689828A838BF0120F1CA312E1
:200A6B000F1CFFF890E6F0E8F089828A838BF0120F1CF9A3120F1C7A0090E6F1E9F00C801C
:190A8B00B322AF82E5BB30E7FB74044FF5BB22AF82E5BB30E7FB8FBB22B2
:010AA400321F
:010AA500321E
:010AA600321D
:010AA700321C
:0601E800E478FFF6D8FDEB
:1202120075150075160075173675181E75191C751A1E01
:200AA80090E6B9E0FF24F45003020BA4EF240A83F582EF241083F583E473DAF0A406A4A4BC
:200AC8001CA4223951850A0A0B0B0B0B0B0B0B0B0B0B120C1EE5826003020BBA90E6A0E0D8
:200AE800FF74014FF0020BBA120CABE5826003020BBA90E6A0E0FF74014FF0020BBA120C8C
:200B0800F9E5826003020BBA90E6A0E0FF74014FF0020BBA120DA5020BBA120382AF8290F0
:200B2800E740EFF090E68AE4F090E68B04F0020BBA90E6BAE0F582120386E582707490E634
:200B4800A0E0FF74014FF0806990E6BCE0FF7522147523007524408F8212032BE582700B11
:200B680090E6A0E0FF74014FF0804790E740E514F090E68AE4F090E68B04F0803590E6BCAD
:200B8800E0FF90E6BAE0F5228F82120348E582702190E6A0E0FF74014FF0801690E6B9E093
:200BA800F5821202E6E582700990E6A0E0FF74014FF090E6A0E0FF74804FF022AF828F0623
:200BC80053067FEE24F75003020C1AEE240A83F582EE240D83F583E473F3F70A1A0E1A12E2
:200BE8001A160B0B0C0C0C0C0C0C0C90E6A022EF30E7067EA27FE680047EA17FE68E828FE3
:200C0800832290E6A32290E6A42290E6A52290E6A6229000002290E6B8E0FFBF8002801F96
:200C2800BF81028005BF8273803490E740E4F090E741F090E68AF090E68B7402F08060E52E
:200C48001625E0FFE515420790E740EFF090E741E4F090E68AF090E68B7402F0804190E67F
:200C6800BCE0F582120BC4AE82AF838E048F05EE4F7003F582228C828D83E0FC30E0047F1A
:200C88000180027F0090E740EFF090E741E4F090E68AF090E68B7402F080047582002275BF
:200CA80082012290E6B8E0FF6005BF0237801190E6BAE0FFBF010575160080317582002263
:200CC80090E6BAE0701A90E6BCE0F582120BC4AE82AF83E0FD5305FE8E828F83EDF0800DE7
:200CE8007582002290E6B9E0F5820202E67582012290E6B8E0FF6005BF026A801B90E6BAE1
:200D0800E0FFBF0202806790E6BAE0FFBF0105751601805A7582002290E6BAE0704390E6B6
:200D2800BCE0F582120BC4AE82AF83EE4F7003F582228E828F83E0FD4305018E828F83EDB5
:200D4800F090E6BCE0FF53070F90E6BCE05480C423541FFE90E6832FF0E0FF74204FF08099
:200D68000D7582002290E6B9E0F5820202E675820122AF82D20210AF02C202EF600E751748
:200D88001C75181E751936751A1E800C75173675181E75191C751A1EA20292AF2290E6BB8B
:200DA800E0FFBF01028019BF02028029BF03028033BF0603020E60BF0703020E75020E84F4
:200DC8007E007F1E8F0690E6B3EEF07E007F1E90E6B4EEF022AF1890E6B3EFF0AE1790E605
:200DE800B4EEF0227D507E1E7F8090E6BAE0F5227B008B020BEAB5220280428D008E018F65
:200E0800028D828E838FF0120F1C28F8E439F9880589068A0774012DF9E43EFA8F048982B4
:200E28008A838CF0120F1CF9B9030280067D007E007F00ED4E6006C3E5229B50B5ED4E6087
:200E48000D8E0790E6B3EFF090E6B4EDF02290E6A0E0FF74014FF0227E127F1E8F0690E6B4
:200E6800B3EEF07E127F1E90E6B4EEF022AF1A90E6B3EFF0AE1990E6B4EEF02290E6A0E0CA
:060E8800FF74014FF0228F
:2001C6007900E94400601B7A00900F3D780075921CE493F2A308B800020592D9F4DAF27594
:0201E60092FF86
:010E8E003231
:010E8F003230
:010E9000322F
:1B0E910020F71130F6138883A88220F509F6A8837583002280FEF280F5F02260
:010EAC003213
:010EAD003212
:010EAE003211
:010EAF003210
:03004300021F0099
:201F0000020394000203BB0002074A00020E8E000203DC0002042B0002074700020EB9004C
:201F2000020EBA00020EBB00020EBC00020EBF00020E9000020EAC00020EAD00020EAF0099
:201F4000020AA500020EB900020F38000207480002074900020AA400020AA600020AA70006
:201F6000020F1B00020EB900020EB900020EB900020EB800020EBD00020EC000020EC200A3
:201F8000020EBE00020EC100020EC300020F1A00020EB000020EB200020EB400020EB60098
:181FA000020EB100020EB300020EB500020EB700020EAE00020E8F00BC
:010EB000320F
:010EB100320E
:2001EE007800E84400600A790075921CE4F309D8FC7800E84400600C7900901C00E4F0A3E7
:04020E00D8FCD9FA45
:010EB200320D
:010EB300320C
:010EB400320B
:010EB500320A
:010EB6003209
:010EB7003208
:010EB8003207
:010EB9003206
:010EBA003205
:010EBB003204
:010EBC003203
:010EBD003202
:010EBE003201
:010EBF003200
:010EC00032FF
:010EC10032FE
:010EC20032FD
:010EC30032FC
:200EC400AE82AF8390E600E05418C423541FFD70057CB1FD801C90E600E05418C423541F3C
:200EE400FBBB01067A617B0180047AC27B028A048B058C228D23152274FFB522021523E581
:160F040022452370F1EE24FFFAEF34FFFB8A068B07EA4B70DD22FE
:010F1A0032A4
:010F1B0032A3
:0D01B900758129120F39E58260030201B63D
:1C0F1C0020F71430F6148883A88220F507E6A88375830022E280F7E49322E022E4
:010F38003286
:040F3900758200229B
:00000001FF
