:201E000012010002FFFFFF4004B403100100010200010A060002FFFFFF400100090219002C
:151E200001010080320904000001FFFFFF00070582020002005C
:191E36000902190001010080320904000001FFFFFF0007058202400000E0
:201E500004030904160353006500720067002000530069007A006F0076001C03660078007C
:181E700032006C006100660077002D0063006100700074007200000037
:040000000201B9320E
:01000B0032C2
:0100130032BA
:01001B0032B2
:0100230032AA
:01002B0032A2
:01003300329A
:01003B003292
:01004300328A
:01004B003282
:01005300327A
:01005B003272
:01006300326A
:03006B000203B1DC
:0300730002044F35
:03007B000207ED8C
:03008300020F3039
:03008B00020470FC
:030093000204BFA5
:03009B000207EA6F
:0300A300020F5CED
:0300AB00020F5DE4
:0300B300020F5EDB
:0300BB00020F61D0
:0300C300020F32F7
:0300CB00020F4ED3
:0300D300020F4FCA
:0300DB00020F51C0
:0300E3000203D83D
:0300EB00020FDA27
:0300F3000207EB16
:0300FB000207EC0D
:03010300020B47A5
:03010B00020B489C
:03011300020B4993
:03011B00020FBD13
:03012300020F5A6E
:03012B00020F5F61
:03013300020F6256
:03013B00020F644C
:03014300020F5B4D
:03014B00020F6040
:03015300020F6335
:03015B00020F652B
:03016300020FBCCC
:03016B00020F522E
:03017300020F5424
:03017B00020F561A
:03018300020F5810
:03018B00020F530D
:03019300020F5503
:03019B00020F57F9
:0301A300020F59EF
:0301AB00020F50F0
:0301B300020F3107
:030227000201B61B
:0301B6000205A798
:20022A0090E61274E8F00000000090E611E0FF747F5FF00000000090E610E0FF747F5FF091
:20024A000000000090E613E0FF747F5FF00000000090E614E0FF747F5FF00000000090E6C9
:20026A0015E0FF747F5FF00000000090E6047480F00000000090E6047402F0000000009070
:20028A00E604E4F00000000090E6187408F00000000090E6207402F00000000090E621E425
:2002AA00F00000000090E6D27402F0000000002290E740E4F090E74175F0007465120F339F
:2002CA0090E68AE4F00000000090E68B7402F0000000002290E60AE0FF90E740F090E68AB1
:2002EA00E4F00000000090E68B7401F00000000022AF82BFB002801EBFB102800ABFB202E9
:20030A00801BBFB335801D8F1090E68BE4F000000000758201221202BA758201221202DE8C
:20032A007582012290E6BAE0F5821207A390E68BE4F0000000007582012275820022E582E7
:20034A00FF600475820022AD22AE23AF248D828E838FF0E4120F3375820122E582FF7004D9
:20036A00E52260047582002290E6837412F0E0FF74204FF090E6047480F00000000090E6FA
:20038A00047402F00000000090E604E4F0000000007582012275820122AF82BF01047F01F2
:2003AA0080027F008F8222C0E0C082C083C007C0D075D000D200AF9174EF5FF59190E65D11
:2003CA007401F0D0D0D007D083D082D0E032C021C0E0C0F0C082C083C007C006C005C004E4
:2003EA00C003C002C001C000C0D075D00090E658E0FFE4F0AE9174EF5EF59190E659E0FE64
:20040A0030E20C7401B51107C007120793D00790E65974FFF090E65B7401F0000000009030
:20042A00E658EFF000000000D0D0D000D001D002D003D004D005D006D007D083D082D0F0F4
:20044A00D0E0D02132C0E0C082C083C0D075D008AF9174EF5FF59190E65D7402F0D0D0D08C
:20046A0083D082D0E032C021C0E0C0F0C082C083C007C006C005C004C003C002C001C000E9
:20048A00C0D075D000758200120E1CAF9174EF5FF59190E65D7410F0D0D0D000D001D00268
:2004AA00D003D004D005D006D007D083D082D0F0D0E0D02132C021C0E0C0F0C082C083C05B
:2004CA0007C006C005C004C003C002C001C000C0D075D000758201120E1CAF9174EF5FF5B6
:2004EA009190E65D7420F0D0D0D000D001D002D003D004D005D006D007D083D082D0F0D099
:20050A00E0D0213290E60B7403F0C20075100090E680E0FF740A4FF09005DC120F6690E69F
:20052A0080E0FF74F75FF090E600E0FF74E75F4410F0E500D2E890E668E0FF74084FF0909E
:20054A00E65CE0FF74014FF0E0FF74024FF0E0FF74204FF0E0FF74104FF0D2AF12022A0213
:20056A00064C300005120B4AC200E510602C74B1B5102490E6A0E0FF20E11F90E68BE0FF3D
:20058A00BF030F7582011207A390E74075F00012070C75100080037510000207AC12050E24
:0505AA0012056C80FB4E
:0302120075110063
:2005AF0075AF03759AE4759B007E007F0090E67BE4F00EBE00010FC3EE9480EF64809480B8
:2005CF0040EB2290E6F3E4F090E6C3F090E6C1F090E6C2F090E6C074E4F090E6F4E4F090BE
:2005EF00E6D3F02290E67174FFF0F5B490E672E0FF74804FF043B6800000000090E6C5E49C
:20060F00F00000000090E6C4E4F0E5B275B2FF00000000858080000000002290E6C6E4F059
:20062F0090E6C7F090E6C8F090E6C9F090E6CAF090E6CBF090E6CCF090E6CDF02290E601C2
:20064F0074EEF090E6F574FFF01205D21205AF1205F312062A7511002285822385832485ED
:20066F00F025AD23AE24AF258D828E838FF0E522120F3374082DFAE43EFB8F048A828B8379
:20068F008CF0E4120F3374102DFAE43EFB8F048A828B838CF0E4120F3374182DFDE43EFE98
:2006AF008D828E838FF0E4020F3385822285832385F024AD22AE23AF248D828E838FF074F1
:2006CF00BD120F3374082DFAE43EFB8F048A828B838CF07403120F3374102DFAE43EFB8FEF
:2006EF00048A828B838CF0E4120F3374182DFDE43EFE8D828E838FF07436020F33AD82AED9
:20070F0083AFF0E5BB30E7FB8D828E838FF0120FBEFC30E50890E6187409F0800690E61850
:20072F007408F0000000008D828E838FF0120FBEFD30E00690E601745EF075220090E40069
:20074F0075F00012066875220090E40175F00012066875220090E40275F00012066875222B
:20076F000090E40375F00012066875220090E40475F00012066890E40575F0001206B975F6
:20078F001101D322900001120A13758200120B307511022285828000000000D3227402B5EE
:2007AF001138E5BB30E73390E6047480F00000000090E618E4F00000000090E6047402F057
:1B07CF000000000090E6187408F00000000090E604E4F000000000751100221F
:0107EA0032DC
:0107EB0032DB
:0107EC0032DA
:0107ED0032D9
:2007EE0085822585832685F02790E601E0FC74FC5CF0E0FC74024CF090E6F574FFF0AA22BE
:20080E00AB23AC248A828B838CF0120FBE90E6F3F074012AF8E43BF98C07888289838FF087
:20082E00120FBEF890E6C3F074022AFDE43BFE8C078D828E838FF0120FBE90E6C1F0740341
:20084E002AFDE43BFE8C078D828E838FF0120FBE90E6C2F074052AFDE43BFE8C078D828E20
:20086E00838FF0120FBE90E6C0F074062AFAE43BFB8A828B838CF0120FBEFA90E6F4F0756D
:20088E00AF07AD25AE268E078F9A7E008D9B759DE48E9E7F0090E67BE0FE90E67CF00FBF6A
:2008AE00800040F190E67174FFF0F5B490E672E0FF74804FF043B6800000000090E6C4E4F5
:2008CE00F00000000090E6C5E4F090E6C6F090E6C7F090E6C8F090E6C9F090E6CAF090E6AF
:2008EE00CBF090E6CCF090E6CDF022AD82AE83AFF0E52275F009A4FC2DF9E43EFA8F038937
:20090E00828A838BF0120FBE90E6C6F07B0074012CF9E43BFAE92DF9EA3EF88F0289828833
:20092E00838AF0120FBE90E6C7F074022CF9E43BFAE92DF9EA3EF88F02898288838AF0128A
:20094E000FBE90E6C8F074032CF9E43BFAE92DF9EA3EF88F02898288838AF0120FBE90E634
:20096E00C9F074042CF9E43BFAE92DF9EA3EF88F02898288838AF0120FBE90E6CAF0740522
:20098E002CF9E43BFAE92DF9EA3EF88F02898288838AF0120FBE90E6CBF074062CF9E43BED
:2009AE00FAE92DF9EA3EF88F02898288838AF0120FBE90E6CCF074072CFCE43BFBEC2DFDFB
:2009CE00EB3EFE8D828E838FF0120FBE90E6CDF022AC82AD83AEF0FF8E028F038B0190E6F0
:2009EE00CEE9F0000000007B0090E6CFEAF0000000007E008D0790E6D0EFF00000000090E1
:200A0E00E6D1ECF022AE82AF838F0590E6D0EDF00000000090E6D1EEF0228582248583255B
:200A2E0085F026E5BB30E7FB90E6F1E0FC7B008524828525838526F0EC120F33A3EB120FBB
:200A4E0033E52224FFFBE52334FFFC7A008A007900C3E89522E99523506EE5BB30E7FBEA1F
:200A6E0075F002A42524F8E52535F0F9AF26AEBD7D00888289838FF0ED120F33A3EE120FAF
:200A8E0033882789288F29888289838FF0120FBEFEA3120FBEFF8A017D00E9B50308EDB5B7
:200AAE000404ADBF8002ADBE8D017D00E94206ED42078527828528838529F0EE120F33A374
:200ACE00EF120F330A020A5B2285822485832585F0267C008C027B00C3EA9522EB95235063
:200AEE0040E5BB30E7FBEC75F002A42524F9E52535F0FAAB2689828A838BF0120FBEA3129C
:200B0E000FBEFFF890E6F0E8F089828A838BF0120FBEF9A3120FBE7A0090E6F1E9F00C8092
:190B2E00B322AF82E5BB30E7FB74044FF5BB22AF82E5BB30E7FB8FBB220E
:010B4700327B
:010B4800327A
:010B49003279
:0601E800E478FFF6D8FDEB
:1202150075160075170075183675191E751A1C751B1EF8
:200B4A0090E6B9E0FF24F45003020C46EF240A83F582EF241083F583E4737C9246A84646AA
:200B6A00BE46C4DBF3270B0B0C0B0C0C0B0C0B0B0B0C120CC0E5826003020C5C90E6A0E01D
:200B8A00FF74014FF0020C5C120D4DE5826003020C5C90E6A0E0FF74014FF0020C5C120D5C
:200BAA009BE5826003020C5C90E6A0E0FF74014FF0020C5C120E47020C5C12039FAF829003
:200BCA00E740EFF090E68AE4F090E68B04F0020C5C90E6BAE0F5821203A3E582707490E6D2
:200BEA00A0E0FF74014FF0806990E6BCE0FF7522157523007524408F82120348E582700B51
:200C0A0090E6A0E0FF74014FF0804790E740E515F090E68AE4F090E68B04F0803590E6BC09
:200C2A00E0FF90E6BAE0F5228F82120365E582702190E6A0E0FF74014FF0801690E6B9E0D3
:200C4A00F5821202FBE582700990E6A0E0FF74014FF090E6A0E0FF74804FF022AF828F066B
:200C6A0053067FEE24F75003020CBCEE240A83F582EE240D83F583E4739599ACBCB0BCB42F
:200C8A00BCB80C0C0C0C0C0C0C0C0C90E6A022EF30E7067EA27FE680047EA17FE68E828FFA
:200CAA00832290E6A32290E6A42290E6A52290E6A6229000002290E6B8E0FFBF8002801FF4
:200CCA00BF81028005BF8273803490E740E4F090E741F090E68AF090E68B7402F08060E58C
:200CEA001725E0FFE516420790E740EFF090E741E4F090E68AF090E68B7402F0804190E6DB
:200D0A00BCE0F582120C66AE82AF838E048F05EE4F7003F582228C828D83E0FC30E0047FD4
:200D2A000180027F0090E740EFF090E741E4F090E68AF090E68B7402F0800475820022751C
:200D4A0082012290E6B8E0FF6005BF0237801190E6BAE0FFBF0105751700803175820022BF
:200D6A0090E6BAE0701A90E6BCE0F582120C66AE82AF83E0FD5305FE8E828F83EDF0800DA1
:200D8A007582002290E6B9E0F5820202FB7582012290E6B8E0FF6005BF026A801B90E6BA29
:200DAA00E0FFBF0202806790E6BAE0FFBF0105751701805A7582002290E6BAE0704390E613
:200DCA00BCE0F582120C66AE82AF83EE4F7003F582228E828F83E0FD4305018E828F83ED70
:200DEA00F090E6BCE0FF53070F90E6BCE05480C423541FFE90E6832FF0E0FF74204FF080F7
:200E0A000D7582002290E6B9E0F5820202FB75820122AF82D20110AF02C201EF600E751891
:200E2A001C75191E751A36751B1E800C75183675191E751A1C751B1EA20192AF2290E6BBE2
:200E4A00E0FFBF01028019BF02028029BF03028033BF0603020F02BF0703020F17020F2668
:200E6A007E007F1E8F0690E6B3EEF07E007F1E90E6B4EEF022AF1990E6B3EFF0AE1890E660
:200E8A00B4EEF0227D507E1E7F8090E6BAE0F5227B008B020BEAB5220280428D008E018FC2
:200EAA00028D828E838FF0120FBE28F8E439F9880589068A0774012DF9E43EFA8F04898270
:200ECA008A838CF0120FBEF9B9030280067D007E007F00ED4E6006C3E5229B50B5ED4E6043
:200EEA000D8E0790E6B3EFF090E6B4EDF02290E6A0E0FF74014FF0227E127F1E8F0690E612
:200F0A00B3EEF07E127F1E90E6B4EEF022AF1B90E6B3EFF0AE1A90E6B4EEF02290E6A0E025
:060F2A00FF74014FF022EC
:2001C6007900E94400601B7A00900FDF780075921CE493F2A308B800020592D9F4DAF275F2
:0201E60092FF86
:010F3000328E
:010F3100328D
:010F3200328C
:1B0F330020F71130F6138883A88220F509F6A8837583002280FEF280F5F022BD
:010F4E003270
:010F4F00326F
:010F5000326E
:010F5100326D
:03004300021F0099
:201F00000203B10002044F000207ED00020F3000020470000204BF000207EA00020F5B00E5
:201F2000020F5C00020F5D00020F5E00020F6100020F3200020F4E00020F4F00020F510081
:201F40000203D800020F5B00020FDA000207EB000207EC00020B4700020B4800020B490065
:201F6000020FBD00020F5B00020F5B00020F5B00020F5A00020F5F00020F6200020F64008C
:201F8000020F6000020F6300020F6500020FBC00020F5200020F5400020F5600020F580081
:181FA000020F5300020F5500020F5700020F5900020F5000020F3100EA
:010F5200326C
:010F5300326B
:2001EE007800E84400600A790075921CE4F309D8FC7800E84400600C7900901C00E4F0A3E7
:04020E00D8FCD9FA45
:010F5400326A
:010F55003269
:010F56003268
:010F57003267
:010F58003266
:010F59003265
:010F5A003264
:010F5B003263
:010F5C003262
:010F5D003261
:010F5E003260
:010F5F00325F
:010F6000325E
:010F6100325D
:010F6200325C
:010F6300325B
:010F6400325A
:010F65003259
:200F6600AE82AF8390E600E05418C423541FFD70057CB1FD801C90E600E05418C423541F99
:200F8600FBBB01067A617B0180047AC27B028A048B058C228D23152274FFB522021523E5DE
:160FA60022452370F1EE24FFFAEF34FFFB8A068B07EA4B70DD225C
:010FBC003202
:010FBD003201
:0D01B900758129120FDBE58260030201B69B
:1C0FBE0020F71430F6148883A88220F507E6A88375830022E280F7E49322E02242
:010FDA0032E4
:040FDB0075820022F9
:00000001FF
