:201E000012010002FFFFFF4004B403100100010200010A060002FFFFFF400100090219002C
:151E200001010080320904000001FFFFFF00070582020002005C
:191E36000902190001010080320904000001FFFFFF0007058202400000E0
:201E500004030904160353006500720067002000530069007A006F0076001C03660078007C
:181E700032006C006100660077002D0063006100700074007200000037
:040000000201B9320E
:01000B0032C2
:0100130032BA
:01001B0032B2
:0100230032AA
:01002B0032A2
:01003300329A
:01003B003292
:01004300328A
:01004B003282
:01005300327A
:01005B003272
:01006300326A
:03006B0002040C80
:030073000204582C
:03007B0002043349
:0300830002105B0D
:03008B00020479F3
:030093000204C89C
:03009B0002091641
:0300A300021087C1
:0300AB00021088B8
:0300B300021089AF
:0300BB0002108CA4
:0300C30002105DCB
:0300CB00021079A7
:0300D30002107A9E
:0300DB0002107C94
:0300E300020517FC
:0300EB00021105FA
:0300F300020917E8
:0300FB00020918DF
:03010300020C7279
:03010B00020C7370
:03011300020C7467
:03011B000210E8E7
:0301230002108542
:03012B0002108A35
:0301330002108D2A
:03013B0002108F20
:0301430002108621
:03014B0002108B14
:0301530002108E09
:03015B00021090FF
:030163000210E7A0
:03016B0002107D02
:0301730002107FF8
:03017B00021081EE
:03018300021083E4
:03018B0002107EE1
:03019300021080D7
:03019B00021082CD
:0301A300021084C3
:0301AB0002107BC4
:0301B30002105CDB
:030227000201B61B
:0301B600020647F7
:20022A0090E61274E0F00000000090E611E0FF747F5FF00000000090E610E0FF747F5FF099
:20024A000000000090E613E0FF747F5FF00000000090E614E0FF747F5FF00000000090E6C9
:20026A0015E0FF747F5FF00000000090E6047480F00000000090E6047402F0000000009070
:20028A00E604E4F00000000090E6187408F00000000090E6207402F00000000090E621E425
:2002AA00F00000000090E6D27402F0000000002290E740E4F090E74175F000746512105E73
:2002CA0090E68AE4F00000000090E68B7402F0000000002290E60AE0FF90E740F090E68AB1
:2002EA00E4F00000000090E68B7401F0000000002290E74074FFF090E74175F000E5111259
:20030A00105E90E601E0FF90E74275F000EF12105E90E68AE4F00000000090E68B7403F046
:20032A000000000022AF82BFB0028028BFB1028014BFB3028025BFB4028027BFB5028038DE
:20034A00BFB65280498F1090E68BE4F000000000758201221202BA758201221202DE7582A4
:20036A00012290E6BAE0F5821208B690E68BE4F0000000007582012290E6BAE0F582120869
:20038A00AD90E68BE4F000000000758201221202FB7582012275820022E582FF60047582B4
:2003AA000022AD22AE23AF248D828E838FF0E412105E75820122E582FF7004E522600475C7
:2003CA0082002290E6837412F0E0FF74204FF090E6047480F00000000090E6047402F00010
:2003EA0000000090E604E4F0000000007582012275820122AF82BF01047F0180027F008F6C
:20040A008222C0E0C082C083C007C0D075D000D200AF9174EF5FF59190E65D7401F0D0D03B
:20042A00D007D083D082D0E032C0E0C082C083C007C0D075D000AF9174EF5FF59190E65D38
:20044A007404F0D0D0D007D083D082D0E032C0E0C082C083C0D075D008AF9174EF5FF591A2
:20046A0090E65D7402F0D0D0D083D082D0E032C021C0E0C0F0C082C083C007C006C005C04A
:20048A0004C003C002C001C000C0D075D000758200120F47AF9174EF5FF59190E65D741035
:2004AA00F0D0D0D000D001D002D003D004D005D006D007D083D082D0F0D0E0D02132C021ED
:2004CA00C0E0C0F0C082C083C007C006C005C004C003C002C001C000C0D075D00075820154
:2004EA00120F47AF9174EF5FF59190E65D7420F0D0D0D000D001D002D003D004D005D00646
:20050A00D007D083D082D0F0D0E0D02132C021C0E0C0F0C082C083C007C006C005C004C036
:20052A0003C002C001C000C0D075D00090E658E0FFE4F0AE9174EF5EF59190E659E0FE30B2
:20054A00E20C7402B51107C007120869D00790E65974FFF090E65B7401F00000000090E661
:20056A0058EFF000000000D0D0D000D001D002D003D004D005D006D007D083D082D0F0D0C9
:20058A00E0D0213290E60B7403F0C20075100090E680E0FF740A4FF09005DC12109190E6F3
:2005AA0080E0FF74F75FF090E600E0FF74E75F4410F0E500D2E890E668E0FF74084FF0901E
:2005CA00E65CE0FF74014FF090E65AE0FF74014FF090E658E0FF74044FF090E65CE0FF7450
:2005EA00024FF0E0FF74204FF0E0FF74104FF0D2AF12022A0206EC300005120C75C200E53A
:20060A0010603774B1B51002800774B2B51028801E90E6A0E0FF20E12190E68BE0FFBF034C
:20062A000990E74075F0001207AC751000800B120879751000800375100002090812058EDE
:05064A0012060180FB17
:0302120075110063
:20064F0075AF03759AE4759B007E007F0090E67BE4F00EBE00010FC3EE9480EF6480948017
:20066F0040EB2290E6F3E4F090E6C3F090E6C1F090E6C2F090E6C074E4F090E6F4E4F0901D
:20068F00E6D3F02290E67174FFF0F5B490E672E0FF74804FF043B6800000000090E6C5E4FB
:2006AF00F00000000090E6C4E4F0E5B275B2FF00000000858080000000002290E6C6E4F0B9
:2006CF0090E6C7F090E6C8F090E6C9F090E6CAF090E6CBF090E6CCF090E6CDF02290E60122
:2006EF007442F090E6F574FFF012067212064F1206931206CA751100228582238583248576
:20070F00F025AD23AE24AF258D828E838FF0E52212105E74082DFAE43EFB8F048A828B83AC
:20072F008CF0E412105E74102DFAE43EFB8F048A828B838CF0E412105E74182DFDE43EFE9F
:20074F008D828E838FF0E402105E85822285832385F024AD22AE23AF248D828E838FF07424
:20076F00BD12105E74082DFAE43EFB8F048A828B838CF0740312105E74102DFAE43EFB8FF6
:20078F00048A828B838CF0E412105E74182DFDE43EFE8D828E838FF0743602105EAD82AEE0
:2007AF0083AFF0E5BB30E7FB8D828E838FF01210E9FD30E50890E6187409F0800690E61883
:2007CF007408F00000000075220090E40075F00012070875220090E40175F0001207087506
:2007EF00220090E40275F00012070875220090E40375F00012070875220090E40475F000C4
:20080F0012070890E40575F000120759751102D32275220090E40075F000120708752200B3
:20082F0090E40175F00012070875220090E40275F00012070875220090E40375F00012078F
:20084F000875220090E40475F00012070890E40575F00012075975110222900001120B3E06
:20086F00758200120C5B7511032290E6047480F00000000090E618E4F00000000090E60414
:20088F007402F00000000090E6187408F00000000090E604E4F000000000751100228582EC
:2008AF008000000000D322AF82C007120879D00790E6017440F00000000075B3FF00000010
:2008CF00008F900000000075800100000000000000000000000000000000000000000000F4
:2008EF000000000000000000000075800090E6017442F000000000D3227403B51108E5BBFD
:07090F0030E7030208792222
:0109160032AE
:0109170032AD
:0109180032AC
:2009190085822585832685F02790E601E0FC74FC5CF0E0FC74024CF090E6F574FFF0AA2291
:20093900AB23AC248A828B838CF01210E990E6F3F074012AF8E43BF98C07888289838FF02F
:200959001210E9F890E6C3F074022AFDE43BFE8C078D828E838FF01210E990E6C1F07403BD
:200979002AFDE43BFE8C078D828E838FF01210E990E6C2F074052AFDE43BFE8C078D828EC8
:20099900838FF01210E990E6C0F074062AFAE43BFB8A828B838CF01210E9FA90E6F4F075E9
:2009B900AF07AD25AE268E078F9A7E008D9B759DE48E9E7F0090E67BE0FE90E67CF00FBF3E
:2009D900800040F190E67174FFF0F5B490E672E0FF74804FF043B6800000000090E6C4E4C9
:2009F900F00000000090E6C5E4F090E6C6F090E6C7F090E6C8F090E6C9F090E6CAF090E683
:200A1900CBF090E6CCF090E6CDF022AD82AE83AFF0E52275F009A4FC2DF9E43EFA8F03890A
:200A3900828A838BF01210E990E6C6F07B0074012CF9E43BFAE92DF9EA3EF88F02898288DB
:200A5900838AF01210E990E6C7F074022CF9E43BFAE92DF9EA3EF88F02898288838AF01232
:200A790010E990E6C8F074032CF9E43BFAE92DF9EA3EF88F02898288838AF01210E990E6B0
:200A9900C9F074042CF9E43BFAE92DF9EA3EF88F02898288838AF01210E990E6CAF07405CA
:200AB9002CF9E43BFAE92DF9EA3EF88F02898288838AF01210E990E6CBF074062CF9E43B95
:200AD900FAE92DF9EA3EF88F02898288838AF01210E990E6CCF074072CFCE43BFBEC2DFDA3
:200AF900EB3EFE8D828E838FF01210E990E6CDF022AC82AD83AEF0FF8E028F038B0190E698
:200B1900CEE9F0000000007B0090E6CFEAF0000000007E008D0790E6D0EFF00000000090B4
:200B3900E6D1ECF022AE82AF838F0590E6D0EDF00000000090E6D1EEF0228582248583252F
:200B590085F026E5BB30E7FB90E6F1E0FC7B008524828525838526F0EC12105EA3EB121062
:200B79005EE52224FFFBE52334FFFC7A008A007900C3E89522E99523506EE5BB30E7FBEAC8
:200B990075F002A42524F8E52535F0F9AF26AEBD7D00888289838FF0ED12105EA3EE121056
:200BB9005E882789288F29888289838FF01210E9FEA31210E9FF8A017D00E9B50308EDB508
:200BD9000404ADBF8002ADBE8D017D00E94206ED42078527828528838529F0EE12105EA31C
:200BF900EF12105E0A020B862285822485832585F0267C008C027B00C3EA9522EB952350DF
:200C190040E5BB30E7FBEC75F002A42524F9E52535F0FAAB2689828A838BF01210E9A31243
:200C390010E9FFF890E6F0E8F089828A838BF01210E9F9A31210E97A0090E6F1E9F00C80E2
:190C5900B322AF82E5BB30E7FB74044FF5BB22AF82E5BB30E7FB8FBB22E2
:010C7200324F
:010C7300324E
:010C7400324D
:0601E800E478FFF6D8FDEB
:12021500751900751A00751B36751C1E751D1C751E1EE6
:200C750090E6B9E0FF24F45003020D71EF240A83F582EF241083F583E473A7BD71D3717150
:200C9500E971EF061E520C0C0D0C0D0D0C0D0C0D0D0D120DEBE5826003020D8790E6A0E089
:200CB500FF74014FF0020D87120E78E5826003020D8790E6A0E0FF74014FF0020D87120E7F
:200CD500C6E5826003020D8790E6A0E0FF74014FF0020D87120F72020D871203FAAF8290A1
:200CF500E740EFF090E68AE4F090E68B04F0020D8790E6BAE0F5821203FEE582707490E61F
:200D1500A0E0FF74014FF0806990E6BCE0FF7522187523007524408F821203A3E582700BC6
:200D350090E6A0E0FF74014FF0804790E740E518F090E68AE4F090E68B04F0803590E6BCDA
:200D5500E0FF90E6BAE0F5228F821203C0E582702190E6A0E0FF74014FF0801690E6B9E04C
:200D7500F58212032FE582700990E6A0E0FF74014FF090E6A0E0FF74804FF022AF828F060A
:200D950053067FEE24F75003020DE7EE240A83F582EE240D83F583E473C0C4D7E7DBE7DFAA
:200DB500E7E30D0D0D0D0D0D0D0D0D90E6A022EF30E7067EA27FE680047EA17FE68E828F6F
:200DD500832290E6A32290E6A42290E6A52290E6A6229000002290E6B8E0FFBF8002801FC8
:200DF500BF81028005BF8273803490E740E4F090E741F090E68AF090E68B7402F08060E560
:200E15001A25E0FFE519420790E740EFF090E741E4F090E68AF090E68B7402F0804190E6A8
:200E3500BCE0F582120D91AE82AF838E048F05EE4F7003F582228C828D83E0FC30E0047F7C
:200E55000180027F0090E740EFF090E741E4F090E68AF090E68B7402F080047582002275F0
:200E750082012290E6B8E0FF6005BF0237801190E6BAE0FFBF0105751A0080317582002290
:200E950090E6BAE0701A90E6BCE0F582120D91AE82AF83E0FD5305FE8E828F83EDF0800D49
:200EB5007582002290E6B9E0F58202032F7582012290E6B8E0FF6005BF026A801B90E6BAC8
:200ED500E0FFBF0202806790E6BAE0FFBF0105751A01805A7582002290E6BAE0704390E6E4
:200EF500BCE0F582120D91AE82AF83EE4F7003F582228E828F83E0FD4305018E828F83ED18
:200F1500F090E6BCE0FF53070F90E6BCE05480C423541FFE90E6832FF0E0FF74204FF080CA
:200F35000D7582002290E6B9E0F58202032F75820122AF82D20110AF02C201EF600E751B2D
:200F55001C751C1E751D36751E1E800C751B36751C1E751D1C751E1EA20192AF2290E6BBA1
:200F7500E0FFBF01028019BF02028029BF03028033BF060302102DBF0703021042021051B8
:200F95007E007F1E8F0690E6B3EEF07E007F1E90E6B4EEF022AF1C90E6B3EFF0AE1B90E62E
:200FB500B4EEF0227D507E1E7F8090E6BAE0F5227B008B020BEAB5220280428D008E018F96
:200FD500028D828E838FF01210E928F8E439F9880589068A0774012DF9E43EFA8F04898218
:200FF5008A838CF01210E9F9B9030280067D007E007F00ED4E6006C3E5229B50B5ED4E60EB
:201015000D8E0790E6B3EFF090E6B4EDF02290E6A0E0FF74014FF0227E127F1E8F0690E6E5
:20103500B3EEF07E127F1E90E6B4EEF022AF1E90E6B3EFF0AE1D90E6B4EEF02290E6A0E0F3
:06105500FF74014FF022C0
:2001C6007900E94400601B7A0090110A780075921CE493F2A308B800020592D9F4DAF275C5
:0201E60092FF86
:01105B003262
:01105C003261
:01105D003260
:1B105E0020F71130F6138883A88220F509F6A8837583002280FEF280F5F02291
:011079003244
:01107A003243
:01107B003242
:01107C003241
:03004300021F0099
:201F000002040C00020458000204330002105B00020479000204C8000209160002108600A5
:201F200002108700021088000210890002108C0002105D000210790002107A0002107C0021
:201F40000205170002108600021105000209170002091800020C7200020C7300020C7400EB
:201F60000210E8000210860002108600021086000210850002108A0002108D0002108F002C
:201F800002108B0002108E00021090000210E70002107D0002107F00021081000210830021
:181FA00002107E0002108000021082000210840002107B0002105C00E2
:01107D003240
:01107E00323F
:2001EE007800E84400600A790075921CE4F309D8FC7800E84400600C7900901C00E4F0A3E7
:04020E00D8FCD9FA45
:01107F00323E
:01108000323D
:01108100323C
:01108200323B
:01108300323A
:011084003239
:011085003238
:011086003237
:011087003236
:011088003235
:011089003234
:01108A003233
:01108B003232
:01108C003231
:01108D003230
:01108E00322F
:01108F00322E
:01109000322D
:20109100AE82AF8390E600E05418C423541FFD70057CB1FD801C90E600E05418C423541F6D
:2010B100FBBB01067A617B0180047AC27B028A048B058C228D23152274FFB522021523E5B2
:1610D10022452370F1EE24FFFAEF34FFFB8A068B07EA4B70DD2230
:0110E70032D6
:0110E80032D5
:0D01B900758129121106E58260030201B66E
:1C10E90020F71430F6148883A88220F507E6A88375830022E280F7E49322E02216
:0111050032B7
:0411060075820022CC
:00000001FF
