:201E000012010002FFFFFF4004B403100100010200010A060002FFFFFF400100090219002C
:151E200001010080320904000001FFFFFF00070582020002005C
:191E36000902190001010080320904000001FFFFFF0007058202400000E0
:201E500004030904160353006500720067002000530069007A006F0076001C03660078007C
:181E700032006C006100660077002D0063006100700074007200000037
:040000000201B9320E
:01000B0032C2
:0100130032BA
:01001B0032B2
:0100230032AA
:01002B0032A2
:01003300329A
:01003B003292
:01004300328A
:01004B003282
:01005300327A
:01005B003272
:01006300326A
:03006B000203CCC1
:030073000204186C
:03007B000203F38A
:03008300020FD792
:03008B0002043D2F
:0300930002048CD8
:03009B00020892C6
:0300A30002100345
:0300AB000210043C
:0300B30002100533
:0300BB0002100828
:0300C300020FD950
:0300CB00020FF52C
:0300D300020FF623
:0300DB00020FF819
:0300E3000204DB39
:0300EB000210817F
:0300F3000208936D
:0300FB0002089464
:03010300020BEEFE
:03010B00020BEFF5
:03011300020BF0EC
:03011B000210646B
:03012300021001C6
:03012B00021006B9
:03013300021009AE
:03013B0002100BA4
:03014300021002A5
:03014B0002100798
:0301530002100A8D
:03015B0002100C83
:0301630002106324
:03016B00020FF987
:03017300020FFB7D
:03017B00020FFD73
:03018300020FFF69
:03018B00020FFA66
:03019300020FFC5C
:03019B00020FFE52
:0301A30002100047
:0301AB00020FF749
:0301B300020FD860
:030227000201B61B
:0301B60002060B33
:20022A0090E61274E0F00000000090E611E0FF747F5FF00000000090E610E0FF747F5FF099
:20024A000000000090E613E0FF747F5FF00000000090E614E0FF747F5FF00000000090E6C9
:20026A0015E0FF747F5FF00000000090E6047480F00000000090E6047402F0000000009070
:20028A00E604E4F00000000090E6187408F00000000090E6207402F00000000090E621E425
:2002AA00F00000000090E6D27402F0000000002290E740E4F090E74175F0007465120FDAF8
:2002CA0090E68AE4F00000000090E68B7402F0000000002290E60AE0FF90E740F090E68AB1
:2002EA00E4F00000000090E68B7401F00000000022AF82BFB0028023BFB102800FBFB302DE
:20030A008020BFB4028022BFB54B80338F0890E68BE4F000000000758201221202BA75825F
:20032A0001221202DE7582012290E6BAE0F58212083290E68BE4F000000000758201229032
:20034A00E6BAE0F58212082990E68BE4F0000000007582012275820022E582FF6004758290
:20036A000022AD17AE18AF198D828E838FF0E4120FDA75820122E582FF7004E517600475B8
:20038A0082002290E6837412F0E0FF74204FF090E6047480F00000000090E6047402F00050
:2003AA0000000090E604E4F0000000007582012275820122AF82BF01047F0180027F008FAC
:2003CA008222C0E0C082C083C007C0D075D000D200AF9174EF5FF59190E65D7401F0D0D07C
:2003EA00D007D083D082D0E032C0E0C082C083C007C0D075D000AF9174EF5FF59190E65D79
:20040A007404F0D0D0D007D083D082D0E032C0E0C082C083C007C0D075D000AF9174EF5FA9
:20042A00F59190E65D7402F0D0D0D007D083D082D0E032C021C0E0C0F0C082C083C007C0B8
:20044A0006C005C004C003C002C001C000C0D075D000758200120EC3AF9174EF5FF5919036
:20046A00E65D7410F0D0D0D000D001D002D003D004D005D006D007D083D082D0F0D0E0D09A
:20048A002132C021C0E0C0F0C082C083C007C006C005C004C003C002C001C000C0D075D058
:2004AA0000758201120EC3AF9174EF5FF59190E65D7420F0D0D0D000D001D002D003D004BE
:2004CA00D005D006D007D083D082D0F0D0E0D02132C021C0E0C0F0C082C083C007C006C055
:2004EA0005C004C003C002C001C000C0D075D00090E658E0FFE4F0AE9174EF5EF59190E6D1
:20050A0059E0FE30E20C7402B50907C0071207E5D00790E65974FFF090E65B7401F000003D
:20052A00000090E658EFF000000000D0D0D000D001D002D003D004D005D006D007D083D0A5
:20054A0082D0F0D0E0D0213290E60B7403F0C20075080090E680E0FF740A4FF09005DC1240
:20056A00100D90E680E0FF74F75FF090E600E0FF74E75F4410F0E500D2E890E668E0FF74A2
:20058A00084FF090E65CE0FF74014FF090E65AE0FF74014FF090E658E0FF74044FF090E668
:2005AA005CE0FF74024FF0E0FF74204FF0E0FF74104FF0D2AF12022A0206B0300005120B24
:2005CA00F1C200E508603774B1B50802800774B2B50828801E90E6A0E0FF20E12190E68BAE
:2005EA00E0FFBF030990E74075F000120770750800800B1207F57508008003750800020805
:09060A00841205521205C580FBA3
:030212007509006B
:2006130075AF03759AE4759B007E007F0090E67BE4F00EBE00010FC3EE9480EF6480948053
:2006330040EB2290E6F3E4F090E6C3F090E6C1F090E6C2F090E6C074E4F090E6F4E4F09059
:20065300E6D3F02290E67174FFF0F5B490E672E0FF74804FF043B6800000000090E6C5E437
:20067300F00000000090E6C4E4F0E5B275B2FF00000000858080000000002290E6C6E4F0F5
:2006930090E6C7F090E6C8F090E6C9F090E6CAF090E6CBF090E6CCF090E6CDF02290E6015E
:2006B3007442F090E6F574FFF012063612061312065712068E7509002285821885831985C0
:2006D300F01AAD18AE19AF1A8D828E838FF0E517120FDA74082DFAE43EFB8F048A828B83A5
:2006F3008CF0E4120FDA74102DFAE43EFB8F048A828B838CF0E4120FDA74182DFDE43EFEE6
:200713008D828E838FF0E4020FDA85821785831885F019AD17AE18AF198D828E838FF07427
:20073300BA120FDA74082DFAE43EFB8F048A828B838CF07403120FDA74102DFAE43EFB8F3F
:20075300048A828B838CF0E4120FDA74182DFDE43EFE8D828E838FF07436020FDAAD82AE26
:2007730083AFF0E5BB30E7FB8D828E838FF0121065FD30E50890E6187409F0800690E61843
:200793007408F00000000075170090E40075F0001206CC75170090E40175F0001206CC90B7
:2007B300E40275F00012071D750902D32275170090E40075F0001206CC75170090E4017571
:2007D300F0001206CC90E40275F00012071D75090222900001120ABA758200120BD77509AF
:2007F300032290E6047480F00000000090E618E4F00000000090E6047402F0000000009091
:20081300E6187408F00000000090E604E4F0000000007509002285828000000000D322AF42
:2008330082C0071207F5D00790E6017440F00000000075B3FF000000008F900000000075A1
:20085300800100000000000000000000000000000000000000000000000000000000000004
:1F087300000075800090E6017442F000000000D3227403B50908E5BB30E7030207F52248
:010892003233
:010893003232
:010894003231
:2008950085821A85831B85F01C90E601E0FC74FC5CF0E0FC74024CF090E6F574FFF0AA1742
:2008B500AB18AC198A828B838CF012106590E6F3F074012AF8E43BF98C07888289838FF04E
:2008D500121065F890E6C3F074022AFDE43BFE8C078D828E838FF012106590E6C1F074034A
:2008F5002AFDE43BFE8C078D828E838FF012106590E6C2F074052AFDE43BFE8C078D828ED1
:20091500838FF012106590E6C0F074062AFAE43BFB8A828B838CF0121065FA90E6F4F07575
:20093500AF07AD1AAE1B8E078F9A7E008D9B759DE48E9E7F0090E67BE0FE90E67CF00FBFD8
:20095500800040F190E67174FFF0F5B490E672E0FF74804FF043B6800000000090E6C4E44D
:20097500F00000000090E6C5E4F090E6C6F090E6C7F090E6C8F090E6C9F090E6CAF090E607
:20099500CBF090E6CCF090E6CDF022AD82AE83AFF0E51775F009A4FC2DF9E43EFA8F03899A
:2009B500828A838BF012106590E6C6F07B0074012CF9E43BFAE92DF9EA3EF88F02898288E4
:2009D500838AF012106590E6C7F074022CF9E43BFAE92DF9EA3EF88F02898288838AF0123B
:2009F500106590E6C8F074032CF9E43BFAE92DF9EA3EF88F02898288838AF012106590E63D
:200A1500C9F074042CF9E43BFAE92DF9EA3EF88F02898288838AF012106590E6CAF07405D2
:200A35002CF9E43BFAE92DF9EA3EF88F02898288838AF012106590E6CBF074062CF9E43B9D
:200A5500FAE92DF9EA3EF88F02898288838AF012106590E6CCF074072CFCE43BFBEC2DFDAB
:200A7500EB3EFE8D828E838FF012106590E6CDF022AC82AD83AEF0FF8E028F038B0190E6A0
:200A9500CEE9F0000000007B0090E6CFEAF0000000007E008D0790E6D0EFF0000000009039
:200AB500E6D1ECF022AE82AF838F0590E6D0EDF00000000090E6D1EEF02285821985831ACA
:200AD50085F01BE5BB30E7FB90E6F1E0FC7B00851982851A83851BF0EC120FDAA3EB120F99
:200AF500DAE51724FFFBE51834FFFC7A008A007900C3E89517E99518506EE5BB30E7FBEAFD
:200B150075F002A42519F8E51A35F0F9AF1BAEBD7D00888289838FF0ED120FDAA3EE120F81
:200B3500DA881C891D8F1E888289838FF0121065FEA3121065FF8A017D00E9B50308EDB539
:200B55000404ADBF8002ADBE8D017D00E94206ED4207851C82851D83851EF0EE120FDAA346
:200B7500EF120FDA0A020B022285821985831A85F01B7C008C027B00C3EA9517EB951850A3
:200B950040E5BB30E7FBEC75F002A42519F9E51A35F0FAAB1B89828A838BF0121065A3126D
:200BB5001065FFF890E6F0E8F089828A838BF0121065F9A31210657A0090E6F1E9F00C80F3
:190BD500B322AF82E5BB30E7FB74044FF5BB22AF82E5BB30E7FB8FBB2267
:010BEE0032D4
:010BEF0032D3
:010BF00032D2
:0601E800E478FFF6D8FDEB
:1202150075110075120075133675141E75151C75161E16
:200BF10090E6B9E0FF24F45003020CEDEF240A83F582EF241083F583E4732339ED4FEDED72
:200C110065ED6B829ACE0C0C0C0C0C0C0C0C0C0C0C0C120D67E5826003020D0390E6A0E034
:200C3100FF74014FF0020D03120DF4E5826003020D0390E6A0E0FF74014FF0020D03120E14
:200C510042E5826003020D0390E6A0E0FF74014FF0020D03120EEE020D031203BAAF8290FA
:200C7100E740EFF090E68AE4F090E68B04F0020D0390E6BAE0F5821203BEE582707490E667
:200C9100A0E0FF74014FF0806990E6BCE0FF7517107518007519408F82120363E582700BB4
:200CB10090E6A0E0FF74014FF0804790E740E510F090E68AE4F090E68B04F0803590E6BC67
:200CD100E0FF90E6BAE0F5178F82120380E582702190E6A0E0FF74014FF0801690E6B9E01C
:200CF100F5821202FBE582700990E6A0E0FF74014FF090E6A0E0FF74804FF022AF828F06C4
:200D110053067FEE24F75003020D63EE240A83F582EE240D83F583E4733C40536357635B4E
:200D3100635F0D0D0D0D0D0D0D0D0D90E6A022EF30E7067EA27FE680047EA17FE68E828FFB
:200D5100832290E6A32290E6A42290E6A52290E6A6229000002290E6B8E0FFBF8002801F4C
:200D7100BF81028005BF8273803490E740E4F090E741F090E68AF090E68B7402F08060E5E4
:200D91001225E0FFE511420790E740EFF090E741E4F090E68AF090E68B7402F0804190E63D
:200DB100BCE0F582120D0DAE82AF838E048F05EE4F7003F582228C828D83E0FC30E0047F85
:200DD1000180027F0090E740EFF090E741E4F090E68AF090E68B7402F08004758200227575
:200DF10082012290E6B8E0FF6005BF0237801190E6BAE0FFBF01057512008031758200221D
:200E110090E6BAE0701A90E6BCE0F582120D0DAE82AF83E0FD5305FE8E828F83EDF0800D51
:200E31007582002290E6B9E0F5820202FB7582012290E6B8E0FF6005BF026A801B90E6BA81
:200E5100E0FFBF0202806790E6BAE0FFBF0105751201805A7582002290E6BAE0704390E670
:200E7100BCE0F582120D0DAE82AF83EE4F7003F582228E828F83E0FD4305018E828F83ED20
:200E9100F090E6BCE0FF53070F90E6BCE05480C423541FFE90E6832FF0E0FF74204FF0804F
:200EB1000D7582002290E6B9E0F5820202FB75820122AF82D20110AF02C201EF600E7513EF
:200ED1001C75141E75153675161E800C75133675141E75151C75161EA20192AF2290E6BB5E
:200EF100E0FFBF01028019BF02028029BF03028033BF0603020FA9BF0703020FBE020FCDCC
:200F11007E007F1E8F0690E6B3EEF07E007F1E90E6B4EEF022AF1490E6B3EFF0AE1390E6C2
:200F3100B4EEF0227D507E1E7F8090E6BAE0F5177B008B020BEAB5170280428D008E018F30
:200F5100028D828E838FF012106528F8E439F9880589068A0774012DF9E43EFA8F04898220
:200F71008A838CF0121065F9B9030280067D007E007F00ED4E6006C3E5179B50B5ED4E60FE
:200F91000D8E0790E6B3EFF090E6B4EDF02290E6A0E0FF74014FF0227E127F1E8F0690E66A
:200FB100B3EEF07E127F1E90E6B4EEF022AF1690E6B3EFF0AE1590E6B4EEF02290E6A0E088
:060FD100FF74014FF02245
:2001C6007900E94400601B7A00901086780075921CE493F2A308B800020592D9F4DAF2754A
:0201E60092FF86
:010FD70032E7
:010FD80032E6
:010FD90032E5
:1B0FDA0020F71130F6138883A88220F509F6A8837583002280FEF280F5F02216
:010FF50032C9
:010FF60032C8
:010FF70032C7
:010FF80032C6
:03004300021F0099
:201F00000203CC00020418000203F300020FD70002043D0002048C0002089200021002006D
:201F200002100300021004000210050002100800020FD900020FF500020FF600020FF80045
:201F40000204DB0002100200021081000208930002089400020BEE00020BEF00020BF000CA
:201F60000210640002100200021002000210020002100100021006000210090002100B004C
:201F80000210070002100A0002100C0002106300020FF900020FFB00020FFD00020FFF0045
:181FA000020FFA00020FFC00020FFE0002100000020FF700020FD800FF
:010FF90032C5
:010FFA0032C4
:2001EE007800E84400600A790075921CE4F309D8FC7800E84400600C7900901C00E4F0A3E7
:04020E00D8FCD9FA45
:010FFB0032C3
:010FFC0032C2
:010FFD0032C1
:010FFE0032C0
:010FFF0032BF
:0110000032BD
:0110010032BC
:0110020032BB
:0110030032BA
:0110040032B9
:0110050032B8
:0110060032B7
:0110070032B6
:0110080032B5
:0110090032B4
:01100A0032B3
:01100B0032B2
:01100C0032B1
:20100D00AE82AF8390E600E05418C423541FFD70057CB1FD801C90E600E05418C423541FF1
:20102D00FBBB01067A617B0180047AC27B028A048B058C178D18151774FFB517021518E56D
:16104D0017451870F1EE24FFFAEF34FFFB8A068B07EA4B70DD22CA
:01106300325A
:011064003259
:0D01B900758121121082E58260030201B6FB
:1C10650020F71430F6148883A88220F507E6A88375830022E280F7E49322E0229A
:01108100323C
:041082007582002251
:00000001FF
