:040000000201B9320E
:01000B0032C2
:0100130032BA
:01001B0032B2
:0100230032AA
:01002B0032A2
:01003300329A
:01003B003292
:01004300328A
:01004B003282
:01005300327A
:01005B003272
:01006300326A
:03006B0002037D10
:030073000203A4E1
:03007B0002071A5F
:03008300020E5E0C
:03008B000203C5A8
:0300930002041450
:03009B0002071742
:0300A300020E8AC0
:0300AB00020E8BB7
:0300B300020E8CAE
:0300BB00020E8FA3
:0300C300020E60CA
:0300CB00020E7CA6
:0300D300020E7D9D
:0300DB00020E7F93
:0300E300020A7599
:0300EB00020F08F9
:0300F300020718E9
:0300FB00020719E0
:03010300020A7479
:03010B00020A766F
:03011300020A7766
:03011B00020EEBE6
:03012300020E8841
:03012B00020E8D34
:03013300020E9029
:03013B00020E921F
:03014300020E8920
:03014B00020E8E13
:03015300020E9108
:03015B00020E93FE
:03016300020EEA9F
:03016B00020E8001
:03017300020E82F7
:03017B00020E84ED
:03018300020E86E3
:03018B00020E81E0
:03019300020E83D6
:03019B00020E85CC
:0301A300020E87C2
:0301AB00020E7EC3
:0301B300020E5FDA
:030224000201B61E
:0301B6000204F64A
:2002270090E61274E8F00000000090E611E0FF747F5FF00000000090E610E0FF747F5FF094
:200247000000000090E613E0FF747F5FF00000000090E614E0FF747F5FF00000000090E6CC
:2002670015E0FF747F5FF00000000090E6047480F00000000090E6047402F0000000009073
:20028700E604E4F00000000090E6187408F00000000090E6207402F00000000090E621E428
:2002A700F00000000090E6D27402F0000000002290E740E4F090E74175F0007463120E6177
:2002C70090E68AE4F090E68B7402F02290E60AE090E740F090E68AE4F090E68B04F022AF19
:2002E70082BFB0028015BFB1028005BFB21B80128F1090E68BE4F0758201221202B775820A
:2003070001221202D37582012275820022E582FF600475820022AD22AE23AF248D828E8323
:200327008FF0E4120E6175820122E582FF7004E52260047582002290E6837412F0E0FF7498
:20034700204FF090E6047480F00000000090E6047402F00000000090E604E4F000000000AB
:200367007582012275820122AF82BF01047F0180027F008F8222C0E0C082C083C007C0D01D
:2003870075D000D200AF9174EF5FF59190E65D7401F0D0D0D007D083D082D0E032C0E0C021
:2003A70082C083C0D075D008AF9174EF5FF59190E65D7402F0D0D0D083D082D0E032C021CB
:2003C700C0E0C0F0C082C083C007C006C005C004C003C002C001C000C0D075D00075820059
:2003E700120D4AAF9174EF5FF59190E65D7410F0D0D0D000D001D002D003D004D005D00659
:20040700D007D083D082D0F0D0E0D02132C021C0E0C0F0C082C083C007C006C005C004C03A
:2004270003C002C001C000C0D075D000758201120D4AAF9174EF5FF59190E65D7420F0D08A
:20044700D0D000D001D002D003D004D005D006D007D083D082D0F0D0E0D0213290E60B74FC
:2004670003F0C20075100090E680E0FF740A4FF09005DC120E9490E680E0FF74F75FF09065
:20048700E600E0FF74E75F4410F0E500D2E890E668E0FF74084FF090E65CE0FF74014FF016
:2004A700E0FF74024FF0E0FF74204FF0E0FF74104FF0D2AF12022702058B300005120A7836
:2004C700C200E510602674B1B5101E90E6A0E0FF20E11990E68BE0FFBF030990E74075F0FA
:1704E7000012064A75100080037510000206DC1204631204C180FB60
:2004FE0075AF03759AE4759B007E007F0090E67BE4F00EBE00010FC3EE9480EF648094806A
:20051E0040EB2290E6F3E4F090E6C3F090E6C1F090E6C2F090E6C074E4F090E6F4E4F0906F
:20053E00E6D3F02290E67174FFF0F5B490E672E0FF74804FF043B6800000000090E6C5E44D
:20055E00F00000000090E6C4E4F02290E6C6E4F090E6C7F090E6C8F090E6C9F090E6CAF093
:20057E0090E6CBF090E6CCF090E6CDF02290E601744EF090E6F574FFF01205211204FE1250
:20059E000542120569C2012285822385832485F025AD23AE24AF258D828E838FF0E5221273
:2005BE000E6174082DFAE43EFB8F048A828B838CF0E4120E6174102DFAE43EFB8F048A82F9
:2005DE008B838CF0E4120E6174182DFDE43EFE8D828E838FF0E4020E61858222858323856B
:2005FE00F024AD22AE23AF248D828E838FF074BD120E6174082DFAE43EFB8F048A828B8398
:20061E008CF07403120E6174102DFAE43EFB8F048A828B838CF0E4120E6174182DFDE43E1A
:20063E00FE8D828E838FF07436020E61AD82AE83AFF0E5BB30E7FB8D828E838FF0120EEC88
:20065E00FC30E50890E6187409F0800690E6187408F0000000008D828E838FF0120EECFD40
:20067E0030E00690E601745EF075220090E40075F0001205A675220090E40175F000120558
:20069E00A675220090E40275F0001205A675220090E40375F0001205A675220090E40475B3
:2006BE00F0001205A690E40575F0001205F7900001120940758200120A5DD201D32230012E
:2006DE0037E5BB30E73290E6047480F00000000090E618E4F00000000090E6047402F0003C
:1906FE0000000090E6187408F00000000090E604E4F000000000C20122B6
:201E000012010002FFFFFF4004B403100100010200010A060002FFFFFF400100090219002C
:151E200001010080320904000001FFFFFF00070582020002005C
:191E36000902190001010080320904000001FFFFFF0007058202400000E0
:201E500004030904160353006500720067002000530069007A006F0076001C03660078007C
:181E700032006C006100660077002D0063006100700074007200000037
:0107170032AF
:0107180032AE
:0107190032AD
:01071A0032AC
:20071B0085822585832685F02790E601E0FC74FC5CF0E0FC74024CF090E6F574FFF0AA2291
:20073B00AB23AC248A828B838CF0120EEC90E6F3F074012AF8E43BF98C07888289838FF02E
:20075B00120EECF890E6C3F074022AFDE43BFE8C078D828E838FF0120EEC90E6C1F07403BB
:20077B002AFDE43BFE8C078D828E838FF0120EEC90E6C2F074052AFDE43BFE8C078D828EC7
:20079B00838FF0120EEC90E6C0F074062AFAE43BFB8A828B838CF0120EECFA90E6F4F075E7
:2007BB00AF07AD25AE268E078F9A7E008D9B759DE48E9E7F0090E67BE0FE90E67CF00FBF3E
:2007DB00800040F190E67174FFF0F5B490E672E0FF74804FF043B6800000000090E6C4E4C9
:2007FB00F00000000090E6C5E4F090E6C6F090E6C7F090E6C8F090E6C9F090E6CAF090E683
:20081B00CBF090E6CCF090E6CDF022AD82AE83AFF0E52275F009A4FC2DF9E43EFA8F03890A
:20083B00828A838BF0120EEC90E6C6F07B0074012CF9E43BFAE92DF9EA3EF88F02898288DA
:20085B00838AF0120EEC90E6C7F074022CF9E43BFAE92DF9EA3EF88F02898288838AF01231
:20087B000EEC90E6C8F074032CF9E43BFAE92DF9EA3EF88F02898288838AF0120EEC90E6AE
:20089B00C9F074042CF9E43BFAE92DF9EA3EF88F02898288838AF0120EEC90E6CAF07405C9
:2008BB002CF9E43BFAE92DF9EA3EF88F02898288838AF0120EEC90E6CBF074062CF9E43B94
:2008DB00FAE92DF9EA3EF88F02898288838AF0120EEC90E6CCF074072CFCE43BFBEC2DFDA2
:2008FB00EB3EFE8D828E838FF0120EEC90E6CDF022AC82AD83AEF0FF8E028F038B0190E697
:20091B00CEE9F0000000007B0090E6CFEAF0000000007E008D0790E6D0EFF00000000090B4
:20093B00E6D1ECF022AE82AF838F0590E6D0EDF00000000090E6D1EEF0228582248583252F
:20095B0085F026E5BB30E7FB90E6F1E0FC7B008524828525838526F0EC120E61A3EB120E63
:20097B0061E52224FFFBE52334FFFC7A008A007900C3E89522E99523506EE5BB30E7FBEAC5
:20099B0075F002A42524F8E52535F0F9AF26AEBD7D00888289838FF0ED120E61A3EE120E57
:2009BB0061882789288F29888289838FF0120EECFEA3120EECFF8A017D00E9B50308EDB503
:2009DB000404ADBF8002ADBE8D017D00E94206ED42078527828528838529F0EE120E61A31B
:2009FB00EF120E610A0209882285822485832585F0267C008C027B00C3EA9522EB952350DE
:200A1B0040E5BB30E7FBEC75F002A42524F9E52535F0FAAB2689828A838BF0120EECA31242
:200A3B000EECFFF890E6F0E8F089828A838BF0120EECF9A3120EEC7A0090E6F1E9F00C80DF
:190A5B00B322AF82E5BB30E7FB74044FF5BB22AF82E5BB30E7FB8FBB22E2
:010A7400324F
:010A7500324E
:010A7600324D
:010A7700324C
:0601E800E478FFF6D8FDEB
:1202120075150075160075173675181E75191C751A1E01
:200A780090E6B9E0FF24F45003020B74EF240A83F582EF241083F583E473AAC074D674743C
:200A9800EC74F20921550A0A0B0A0B0B0A0B0A0B0B0B120BEEE5826003020B8A90E6A0E08C
:200AB800FF74014FF0020B8A120C7BE5826003020B8A90E6A0E0FF74014FF0020B8A120C7C
:200AD800C9E5826003020B8A90E6A0E0FF74014FF0020B8A120D75020B8A12036BAF829028
:200AF800E740EFF090E68AE4F090E68B04F0020B8A90E6BAE0F58212036FE582707490E6AC
:200B1800A0E0FF74014FF0806990E6BCE0FF7522147523007524408F82120314E582700B58
:200B380090E6A0E0FF74014FF0804790E740E514F090E68AE4F090E68B04F0803590E6BCDD
:200B5800E0FF90E6BAE0F5228F82120331E582702190E6A0E0FF74014FF0801690E6B9E0DA
:200B7800F5821202E6E582700990E6A0E0FF74014FF090E6A0E0FF74804FF022AF828F0653
:200B980053067FEE24F75003020BEAEE240A83F582EE240D83F583E473C3C7DAEADEEAE293
:200BB800EAE60B0B0B0B0B0B0B0B0B90E6A022EF30E7067EA27FE680047EA17FE68E828F7A
:200BD800832290E6A32290E6A42290E6A52290E6A6229000002290E6B8E0FFBF8002801FC7
:200BF800BF81028005BF8273803490E740E4F090E741F090E68AF090E68B7402F08060E55F
:200C18001625E0FFE515420790E740EFF090E741E4F090E68AF090E68B7402F0804190E6AF
:200C3800BCE0F582120B94AE82AF838E048F05EE4F7003F582228C828D83E0FC30E0047F7A
:200C58000180027F0090E740EFF090E741E4F090E68AF090E68B7402F080047582002275EF
:200C780082012290E6B8E0FF6005BF0237801190E6BAE0FFBF010575160080317582002293
:200C980090E6BAE0701A90E6BCE0F582120B94AE82AF83E0FD5305FE8E828F83EDF0800D47
:200CB8007582002290E6B9E0F5820202E67582012290E6B8E0FF6005BF026A801B90E6BA11
:200CD800E0FFBF0202806790E6BAE0FFBF0105751601805A7582002290E6BAE0704390E6E7
:200CF800BCE0F582120B94AE82AF83EE4F7003F582228E828F83E0FD4305018E828F83ED16
:200D1800F090E6BCE0FF53070F90E6BCE05480C423541FFE90E6832FF0E0FF74204FF080C9
:200D38000D7582002290E6B9E0F5820202E675820122AF82D20210AF02C202EF600E751778
:200D58001C75181E751936751A1E800C75173675181E75191C751A1EA20292AF2290E6BBBB
:200D7800E0FFBF01028019BF02028029BF03028033BF0603020E30BF0703020E45020E54B4
:200D98007E007F1E8F0690E6B3EEF07E007F1E90E6B4EEF022AF1890E6B3EFF0AE1790E635
:200DB800B4EEF0227D507E1E7F8090E6BAE0F5227B008B020BEAB5220280428D008E018F95
:200DD800028D828E838FF0120EEC28F8E439F9880589068A0774012DF9E43EFA8F04898216
:200DF8008A838CF0120EECF9B9030280067D007E007F00ED4E6006C3E5229B50B5ED4E60E9
:200E18000D8E0790E6B3EFF090E6B4EDF02290E6A0E0FF74014FF0227E127F1E8F0690E6E4
:200E3800B3EEF07E127F1E90E6B4EEF022AF1A90E6B3EFF0AE1990E6B4EEF02290E6A0E0FA
:060E5800FF74014FF022BF
:2001C6007900E94400601B7A00900F0D780075921CE493F2A308B800020592D9F4DAF275C4
:0201E60092FF86
:010E5E003261
:010E5F003260
:010E6000325F
:1B0E610020F71130F6138883A88220F509F6A8837583002280FEF280F5F02290
:010E7C003243
:010E7D003242
:010E7E003241
:010E7F003240
:03004300021F0099
:201F000002037D000203A40002071A00020E5E000203C5000204140002071700020E890068
:201F2000020E8A00020E8B00020E8C00020E8F00020E6000020E7C00020E7D00020E7F0019
:201F4000020A7500020E8900020F08000207180002071900020A7400020A7600020A770086
:201F6000020EEB00020E8900020E8900020E8900020E8800020E8D00020E9000020E920024
:201F8000020E8E00020E9100020E9300020EEA00020E8000020E8200020E8400020E860019
:181FA000020E8100020E8300020E8500020E8700020E7E00020E5F00DC
:010E8000323F
:010E8100323E
:2001EE007800E84400600A790075921CE4F309D8FC7800E84400600C7900901C00E4F0A3E7
:04020E00D8FCD9FA45
:010E8200323D
:010E8300323C
:010E8400323B
:010E8500323A
:010E86003239
:010E87003238
:010E88003237
:010E89003236
:010E8A003235
:010E8B003234
:010E8C003233
:010E8D003232
:010E8E003231
:010E8F003230
:010E9000322F
:010E9100322E
:010E9200322D
:010E9300322C
:200E9400AE82AF8390E600E05418C423541FFD70057CB1FD801C90E600E05418C423541F6C
:200EB400FBBB01067A617B0180047AC27B028A048B058C228D23152274FFB522021523E5B1
:160ED40022452370F1EE24FFFAEF34FFFB8A068B07EA4B70DD222F
:010EEA0032D5
:010EEB0032D4
:0D01B900758129120F09E58260030201B66D
:1C0EEC0020F71430F6148883A88220F507E6A88375830022E280F7E49322E02215
:010F080032B6
:040F090075820022CB
:00000001FF