:201E000012010002FFFFFF4004B403100100010200010A060002FFFFFF400100090219002C
:151E200001010080320904000001FFFFFF00070582020002005C
:191E36000902190001010080320904000001FFFFFF0007058202400000E0
:201E500004030904160353006500720067002000530069007A006F0076001C03660078007C
:181E700032006C006100660077002D0063006100700074007200000037
:040000000201B9320E
:01000B0032C2
:0100130032BA
:01001B0032B2
:0100230032AA
:01002B0032A2
:01003300329A
:01003B003292
:01004300328A
:01004B003282
:01005300327A
:01005B003272
:01006300326A
:03006B000203B1DC
:0300730002044F35
:03007B0002080870
:03008300020F4B1E
:03008B00020470FC
:030093000204BFA5
:03009B0002080553
:0300A300020F77D2
:0300AB00020F78C9
:0300B300020F79C0
:0300BB00020F7CB5
:0300C300020F4DDC
:0300CB00020F69B8
:0300D300020F6AAF
:0300DB00020F6CA5
:0300E3000203D83D
:0300EB00020FF50C
:0300F300020806FA
:0300FB00020807F1
:03010300020B628A
:03010B00020B6381
:03011300020B6478
:03011B00020FD8F8
:03012300020F7553
:03012B00020F7A46
:03013300020F7D3B
:03013B00020F7F31
:03014300020F7632
:03014B00020F7B25
:03015300020F7E1A
:03015B00020F8010
:03016300020FD7B1
:03016B00020F6D13
:03017300020F6F09
:03017B00020F71FF
:03018300020F73F5
:03018B00020F6EF2
:03019300020F70E8
:03019B00020F72DE
:0301A300020F74D4
:0301AB00020F6BD5
:0301B300020F4CEC
:030227000201B61B
:0301B6000205BC83
:20022A0090E61274E8F00000000090E611E0FF747F5FF00000000090E610E0FF747F5FF091
:20024A000000000090E613E0FF747F5FF00000000090E614E0FF747F5FF00000000090E6C9
:20026A0015E0FF747F5FF00000000090E6047480F00000000090E6047402F0000000009070
:20028A00E604E4F00000000090E6187408F00000000090E6207402F00000000090E621E425
:2002AA00F00000000090E6D27402F0000000002290E740E4F090E74175F0007465120F4E84
:2002CA0090E68AE4F00000000090E68B7402F0000000002290E60AE0FF90E740F090E68AB1
:2002EA00E4F00000000090E68B7401F00000000022AF82BFB002801EBFB102800ABFB202E9
:20030A00801BBFB335801D8F1090E68BE4F000000000758201221202BA758201221202DE8C
:20032A007582012290E6BAE0F5821207B890E68BE4F0000000007582012275820022E582D2
:20034A00FF600475820022AD22AE23AF248D828E838FF0E4120F4E75820122E582FF7004BE
:20036A00E52260047582002290E6837412F0E0FF74204FF090E6047480F00000000090E6FA
:20038A00047402F00000000090E604E4F0000000007582012275820122AF82BF01047F01F2
:2003AA0080027F008F8222C0E0C082C083C007C0D075D000D200AF9174EF5FF59190E65D11
:2003CA007401F0D0D0D007D083D082D0E032C021C0E0C0F0C082C083C007C006C005C004E4
:2003EA00C003C002C001C000C0D075D00090E658E0FFE4F0AE9174EF5EF59190E659E0FE64
:20040A0030E20C7401B51107C0071207A8D00790E65974FFF090E65B7401F000000000901B
:20042A00E658EFF000000000D0D0D000D001D002D003D004D005D006D007D083D082D0F0F4
:20044A00D0E0D02132C0E0C082C083C0D075D008AF9174EF5FF59190E65D7402F0D0D0D08C
:20046A0083D082D0E032C021C0E0C0F0C082C083C007C006C005C004C003C002C001C000E9
:20048A00C0D075D000758200120E37AF9174EF5FF59190E65D7410F0D0D0D000D001D0024D
:2004AA00D003D004D005D006D007D083D082D0F0D0E0D02132C021C0E0C0F0C082C083C05B
:2004CA0007C006C005C004C003C002C001C000C0D075D000758201120E37AF9174EF5FF59B
:2004EA009190E65D7420F0D0D0D000D001D002D003D004D005D006D007D083D082D0F0D099
:20050A00E0D0213290E60B7403F0C20075100090E680E0FF740A4FF09005DC120F8190E684
:20052A0080E0FF74F75FF090E600E0FF74E75F4410F0E500D2E890E668E0FF74084FF0909E
:20054A00E65CE0FF74014FF090E65AE0FF74014FF090E658E0FF74044FF090E65CE0FF74D0
:20056A00024FF0E0FF74204FF0E0FF74104FF0D2AF12022A020661300005120B65C200E556
:20058A0010602C74B1B5102490E6A0E0FF20E11F90E68BE0FFBF030F7582011207B890E7A1
:1A05AA004075F00012072175100080037510000207C112050E12058180FBC9
:0302120075110063
:2005C40075AF03759AE4759B007E007F0090E67BE4F00EBE00010FC3EE9480EF64809480A3
:2005E40040EB2290E6F3E4F090E6C3F090E6C1F090E6C2F090E6C074E4F090E6F4E4F090A9
:20060400E6D3F02290E67174FFF0F5B490E672E0FF74804FF043B6800000000090E6C5E486
:20062400F00000000090E6C4E4F0E5B275B2FF00000000858080000000002290E6C6E4F044
:2006440090E6C7F090E6C8F090E6C9F090E6CAF090E6CBF090E6CCF090E6CDF02290E601AD
:2006640074EEF090E6F574FFF01205E71205C412060812063F751100228582238583248583
:20068400F025AD23AE24AF258D828E838FF0E522120F4E74082DFAE43EFB8F048A828B8349
:2006A4008CF0E4120F4E74102DFAE43EFB8F048A828B838CF0E4120F4E74182DFDE43EFE4D
:2006C4008D828E838FF0E4020F4E85822285832385F024AD22AE23AF248D828E838FF074C1
:2006E400BD120F4E74082DFAE43EFB8F048A828B838CF07403120F4E74102DFAE43EFB8FA4
:20070400048A828B838CF0E4120F4E74182DFDE43EFE8D828E838FF07436020F4EAD82AE8D
:2007240083AFF0E5BB30E7FB8D828E838FF0120FD9FC30E50890E6187409F0800690E61820
:200744007408F0000000008D828E838FF0120FD9FD30E00690E601745EF075220090E40039
:2007640075F00012067D75220090E40175F00012067D75220090E40275F00012067D7522D7
:200784000090E40375F00012067D75220090E40475F00012067D90E40575F0001206CE75A2
:2007A4001101D322900001120A2E758200120B4B7511022285828000000000D3227402B5A3
:2007C400113EE5BB30E73990E6047480F00000000090E618E4F00000000090E6047402F036
:2007E4000000000090E6187408F00000000090E604E4F0000000007582001207B87511005F
:0108040022D1
:0108050032C0
:0108060032BF
:0108070032BE
:0108080032BD
:2008090085822585832685F02790E601E0FC74FC5CF0E0FC74024CF090E6F574FFF0AA22A2
:20082900AB23AC248A828B838CF0120FD990E6F3F074012AF8E43BF98C07888289838FF051
:20084900120FD9F890E6C3F074022AFDE43BFE8C078D828E838FF0120FD990E6C1F07403F0
:200869002AFDE43BFE8C078D828E838FF0120FD990E6C2F074052AFDE43BFE8C078D828EEA
:20088900838FF0120FD990E6C0F074062AFAE43BFB8A828B838CF0120FD9FA90E6F4F0751C
:2008A900AF07AD25AE268E078F9A7E008D9B759DE48E9E7F0090E67BE0FE90E67CF00FBF4F
:2008C900800040F190E67174FFF0F5B490E672E0FF74804FF043B6800000000090E6C4E4DA
:2008E900F00000000090E6C5E4F090E6C6F090E6C7F090E6C8F090E6C9F090E6CAF090E694
:20090900CBF090E6CCF090E6CDF022AD82AE83AFF0E52275F009A4FC2DF9E43EFA8F03891B
:20092900828A838BF0120FD990E6C6F07B0074012CF9E43BFAE92DF9EA3EF88F02898288FD
:20094900838AF0120FD990E6C7F074022CF9E43BFAE92DF9EA3EF88F02898288838AF01254
:200969000FD990E6C8F074032CF9E43BFAE92DF9EA3EF88F02898288838AF0120FD990E6E3
:20098900C9F074042CF9E43BFAE92DF9EA3EF88F02898288838AF0120FD990E6CAF07405EC
:2009A9002CF9E43BFAE92DF9EA3EF88F02898288838AF0120FD990E6CBF074062CF9E43BB7
:2009C900FAE92DF9EA3EF88F02898288838AF0120FD990E6CCF074072CFCE43BFBEC2DFDC5
:2009E900EB3EFE8D828E838FF0120FD990E6CDF022AC82AD83AEF0FF8E028F038B0190E6BA
:200A0900CEE9F0000000007B0090E6CFEAF0000000007E008D0790E6D0EFF00000000090C5
:200A2900E6D1ECF022AE82AF838F0590E6D0EDF00000000090E6D1EEF02285822485832540
:200A490085F026E5BB30E7FB90E6F1E0FC7B008524828525838526F0EC120F4EA3EB120F85
:200A69004EE52224FFFBE52334FFFC7A008A007900C3E89522E99523506EE5BB30E7FBEAE9
:200A890075F002A42524F8E52535F0F9AF26AEBD7D00888289838FF0ED120F4EA3EE120F79
:200AA9004E882789288F29888289838FF0120FD9FEA3120FD9FF8A017D00E9B50308EDB54B
:200AC9000404ADBF8002ADBE8D017D00E94206ED42078527828528838529F0EE120F4EA33E
:200AE900EF120F4E0A020A762285822485832585F0267C008C027B00C3EA9522EB95235012
:200B090040E5BB30E7FBEC75F002A42524F9E52535F0FAAB2689828A838BF0120FD9A31265
:200B29000FD9FFF890E6F0E8F089828A838BF0120FD9F9A3120FD97A0090E6F1E9F00C8026
:190B4900B322AF82E5BB30E7FB74044FF5BB22AF82E5BB30E7FB8FBB22F3
:010B62003260
:010B6300325F
:010B6400325E
:0601E800E478FFF6D8FDEB
:1202150075160075170075183675191E751A1C751B1EF8
:200B650090E6B9E0FF24F45003020C61EF240A83F582EF241083F583E47397AD61C36161D2
:200B8500D961DFF60E420B0B0C0B0C0C0B0C0B0B0C0C120CDBE5826003020C7790E6A0E029
:200BA500FF74014FF0020C77120D68E5826003020C7790E6A0E0FF74014FF0020C77120DD5
:200BC500B6E5826003020C7790E6A0E0FF74014FF0020C77120E62020C7712039FAF829061
:200BE500E740EFF090E68AE4F090E68B04F0020C7790E6BAE0F5821203A3E582707490E69C
:200C0500A0E0FF74014FF0806990E6BCE0FF7522157523007524408F82120348E582700B35
:200C250090E6A0E0FF74014FF0804790E740E515F090E68AE4F090E68B04F0803590E6BCEE
:200C4500E0FF90E6BAE0F5228F82120365E582702190E6A0E0FF74014FF0801690E6B9E0B8
:200C6500F5821202FBE582700990E6A0E0FF74014FF090E6A0E0FF74804FF022AF828F0650
:200C850053067FEE24F75003020CD7EE240A83F582EE240D83F583E473B0B4C7D7CBD7CF3C
:200CA500D7D30C0C0C0C0C0C0C0C0C90E6A022EF30E7067EA27FE680047EA17FE68E828FA9
:200CC500832290E6A32290E6A42290E6A52290E6A6229000002290E6B8E0FFBF8002801FD9
:200CE500BF81028005BF8273803490E740E4F090E741F090E68AF090E68B7402F08060E571
:200D05001725E0FFE516420790E740EFF090E741E4F090E68AF090E68B7402F0804190E6BF
:200D2500BCE0F582120C81AE82AF838E048F05EE4F7003F582228C828D83E0FC30E0047F9E
:200D45000180027F0090E740EFF090E741E4F090E68AF090E68B7402F08004758200227501
:200D650082012290E6B8E0FF6005BF0237801190E6BAE0FFBF0105751700803175820022A4
:200D850090E6BAE0701A90E6BCE0F582120C81AE82AF83E0FD5305FE8E828F83EDF0800D6B
:200DA5007582002290E6B9E0F5820202FB7582012290E6B8E0FF6005BF026A801B90E6BA0E
:200DC500E0FFBF0202806790E6BAE0FFBF0105751701805A7582002290E6BAE0704390E6F8
:200DE500BCE0F582120C81AE82AF83EE4F7003F582228E828F83E0FD4305018E828F83ED3A
:200E0500F090E6BCE0FF53070F90E6BCE05480C423541FFE90E6832FF0E0FF74204FF080DB
:200E25000D7582002290E6B9E0F5820202FB75820122AF82D20110AF02C201EF600E751876
:200E45001C75191E751A36751B1E800C75183675191E751A1C751B1EA20192AF2290E6BBC7
:200E6500E0FFBF01028019BF02028029BF03028033BF0603020F1DBF0703020F32020F41FC
:200E85007E007F1E8F0690E6B3EEF07E007F1E90E6B4EEF022AF1990E6B3EFF0AE1890E645
:200EA500B4EEF0227D507E1E7F8090E6BAE0F5227B008B020BEAB5220280428D008E018FA7
:200EC500028D828E838FF0120FD928F8E439F9880589068A0774012DF9E43EFA8F0489823A
:200EE5008A838CF0120FD9F9B9030280067D007E007F00ED4E6006C3E5229B50B5ED4E600D
:200F05000D8E0790E6B3EFF090E6B4EDF02290E6A0E0FF74014FF0227E127F1E8F0690E6F6
:200F2500B3EEF07E127F1E90E6B4EEF022AF1B90E6B3EFF0AE1A90E6B4EEF02290E6A0E00A
:060F4500FF74014FF022D1
:2001C6007900E94400601B7A00900FFA780075921CE493F2A308B800020592D9F4DAF275D7
:0201E60092FF86
:010F4B003273
:010F4C003272
:010F4D003271
:1B0F4E0020F71130F6138883A88220F509F6A8837583002280FEF280F5F022A2
:010F69003255
:010F6A003254
:010F6B003253
:010F6C003252
:03004300021F0099
:201F00000203B10002044F0002080800020F4B00020470000204BF0002080500020F760077
:201F2000020F7700020F7800020F7900020F7C00020F4D00020F6900020F6A00020F6C00A9
:201F40000203D800020F7600020FF5000208060002080700020B6200020B6300020B6400A6
:201F6000020FD800020F7600020F7600020F7600020F7500020F7A00020F7D00020F7F00B4
:201F8000020F7B00020F7E00020F8000020FD700020F6D00020F6F00020F7100020F7300A9
:181FA000020F6E00020F7000020F7200020F7400020F6B00020F4C0048
:010F6D003251
:010F6E003250
:2001EE007800E84400600A790075921CE4F309D8FC7800E84400600C7900901C00E4F0A3E7
:04020E00D8FCD9FA45
:010F6F00324F
:010F7000324E
:010F7100324D
:010F7200324C
:010F7300324B
:010F7400324A
:010F75003249
:010F76003248
:010F77003247
:010F78003246
:010F79003245
:010F7A003244
:010F7B003243
:010F7C003242
:010F7D003241
:010F7E003240
:010F7F00323F
:010F8000323E
:200F8100AE82AF8390E600E05418C423541FFD70057CB1FD801C90E600E05418C423541F7E
:200FA100FBBB01067A617B0180047AC27B028A048B058C228D23152274FFB522021523E5C3
:160FC10022452370F1EE24FFFAEF34FFFB8A068B07EA4B70DD2241
:010FD70032E7
:010FD80032E6
:0D01B900758129120FF6E58260030201B680
:1C0FD90020F71430F6148883A88220F507E6A88375830022E280F7E49322E02227
:010FF50032C9
:040FF60075820022DE
:00000001FF
